{
  "abi": [
    {
      "type": "constructor",
      "inputs": [
        {
          "name": "_stableCoin",
          "type": "address",
          "internalType": "address"
        }
      ],
      "stateMutability": "nonpayable"
    },
    {
      "type": "receive",
      "stateMutability": "payable"
    },
    {
      "type": "function",
      "name": "addMenuItem",
      "inputs": [
        {
          "name": "name",
          "type": "string",
          "internalType": "string"
        },
        {
          "name": "description",
          "type": "string",
          "internalType": "string"
        },
        {
          "name": "image",
          "type": "string",
          "internalType": "string"
        },
        {
          "name": "price",
          "type": "uint256",
          "internalType": "uint256"
        },
        {
          "name": "itemCategory",
          "type": "uint8",
          "internalType": "enum Paynapple.Category"
        },
        {
          "name": "stockCount",
          "type": "uint256",
          "internalType": "uint256"
        }
      ],
      "outputs": [],
      "stateMutability": "nonpayable"
    },
    {
      "type": "function",
      "name": "buyItem",
      "inputs": [
        {
          "name": "id",
          "type": "uint256",
          "internalType": "uint256"
        },
        {
          "name": "quantity",
          "type": "uint256",
          "internalType": "uint256"
        }
      ],
      "outputs": [],
      "stateMutability": "payable"
    },
    {
      "type": "function",
      "name": "editItem",
      "inputs": [
        {
          "name": "id",
          "type": "uint256",
          "internalType": "uint256"
        },
        {
          "name": "name",
          "type": "string",
          "internalType": "string"
        },
        {
          "name": "description",
          "type": "string",
          "internalType": "string"
        },
        {
          "name": "image",
          "type": "string",
          "internalType": "string"
        },
        {
          "name": "price",
          "type": "uint256",
          "internalType": "uint256"
        },
        {
          "name": "itemCategory",
          "type": "uint8",
          "internalType": "enum Paynapple.Category"
        },
        {
          "name": "stockCount",
          "type": "uint256",
          "internalType": "uint256"
        }
      ],
      "outputs": [],
      "stateMutability": "nonpayable"
    },
    {
      "type": "function",
      "name": "getAllMenuItems",
      "inputs": [],
      "outputs": [
        {
          "name": "",
          "type": "tuple[]",
          "internalType": "struct Paynapple.MenuItem[]",
          "components": [
            {
              "name": "id",
              "type": "uint256",
              "internalType": "uint256"
            },
            {
              "name": "name",
              "type": "string",
              "internalType": "string"
            },
            {
              "name": "image",
              "type": "string",
              "internalType": "string"
            },
            {
              "name": "description",
              "type": "string",
              "internalType": "string"
            },
            {
              "name": "price",
              "type": "uint256",
              "internalType": "uint256"
            },
            {
              "name": "itemCategory",
              "type": "uint8",
              "internalType": "enum Paynapple.Category"
            },
            {
              "name": "stockCount",
              "type": "uint256",
              "internalType": "uint256"
            }
          ]
        }
      ],
      "stateMutability": "view"
    },
    {
      "type": "function",
      "name": "getAllMenuSales",
      "inputs": [],
      "outputs": [
        {
          "name": "",
          "type": "tuple[]",
          "internalType": "struct Paynapple.Sale[]",
          "components": [
            {
              "name": "name",
              "type": "string",
              "internalType": "string"
            },
            {
              "name": "salesType",
              "type": "uint8",
              "internalType": "enum Paynapple.SalesType"
            },
            {
              "name": "amount",
              "type": "uint256",
              "internalType": "uint256"
            },
            {
              "name": "increase",
              "type": "uint256",
              "internalType": "uint256"
            }
          ]
        }
      ],
      "stateMutability": "view"
    },
    {
      "type": "function",
      "name": "getBalance",
      "inputs": [],
      "outputs": [
        {
          "name": "",
          "type": "uint256",
          "internalType": "uint256"
        }
      ],
      "stateMutability": "view"
    },
    {
      "type": "function",
      "name": "getBurgerCount",
      "inputs": [],
      "outputs": [
        {
          "name": "",
          "type": "uint256",
          "internalType": "uint256"
        }
      ],
      "stateMutability": "view"
    },
    {
      "type": "function",
      "name": "getBurgers",
      "inputs": [],
      "outputs": [
        {
          "name": "",
          "type": "tuple[]",
          "internalType": "struct Paynapple.MenuItem[]",
          "components": [
            {
              "name": "id",
              "type": "uint256",
              "internalType": "uint256"
            },
            {
              "name": "name",
              "type": "string",
              "internalType": "string"
            },
            {
              "name": "image",
              "type": "string",
              "internalType": "string"
            },
            {
              "name": "description",
              "type": "string",
              "internalType": "string"
            },
            {
              "name": "price",
              "type": "uint256",
              "internalType": "uint256"
            },
            {
              "name": "itemCategory",
              "type": "uint8",
              "internalType": "enum Paynapple.Category"
            },
            {
              "name": "stockCount",
              "type": "uint256",
              "internalType": "uint256"
            }
          ]
        }
      ],
      "stateMutability": "view"
    },
    {
      "type": "function",
      "name": "getDessertCount",
      "inputs": [],
      "outputs": [
        {
          "name": "",
          "type": "uint256",
          "internalType": "uint256"
        }
      ],
      "stateMutability": "view"
    },
    {
      "type": "function",
      "name": "getDesserts",
      "inputs": [],
      "outputs": [
        {
          "name": "",
          "type": "tuple[]",
          "internalType": "struct Paynapple.MenuItem[]",
          "components": [
            {
              "name": "id",
              "type": "uint256",
              "internalType": "uint256"
            },
            {
              "name": "name",
              "type": "string",
              "internalType": "string"
            },
            {
              "name": "image",
              "type": "string",
              "internalType": "string"
            },
            {
              "name": "description",
              "type": "string",
              "internalType": "string"
            },
            {
              "name": "price",
              "type": "uint256",
              "internalType": "uint256"
            },
            {
              "name": "itemCategory",
              "type": "uint8",
              "internalType": "enum Paynapple.Category"
            },
            {
              "name": "stockCount",
              "type": "uint256",
              "internalType": "uint256"
            }
          ]
        }
      ],
      "stateMutability": "view"
    },
    {
      "type": "function",
      "name": "getDrinkCount",
      "inputs": [],
      "outputs": [
        {
          "name": "",
          "type": "uint256",
          "internalType": "uint256"
        }
      ],
      "stateMutability": "view"
    },
    {
      "type": "function",
      "name": "getDrinks",
      "inputs": [],
      "outputs": [
        {
          "name": "",
          "type": "tuple[]",
          "internalType": "struct Paynapple.MenuItem[]",
          "components": [
            {
              "name": "id",
              "type": "uint256",
              "internalType": "uint256"
            },
            {
              "name": "name",
              "type": "string",
              "internalType": "string"
            },
            {
              "name": "image",
              "type": "string",
              "internalType": "string"
            },
            {
              "name": "description",
              "type": "string",
              "internalType": "string"
            },
            {
              "name": "price",
              "type": "uint256",
              "internalType": "uint256"
            },
            {
              "name": "itemCategory",
              "type": "uint8",
              "internalType": "enum Paynapple.Category"
            },
            {
              "name": "stockCount",
              "type": "uint256",
              "internalType": "uint256"
            }
          ]
        }
      ],
      "stateMutability": "view"
    },
    {
      "type": "function",
      "name": "getMenuItem",
      "inputs": [
        {
          "name": "id",
          "type": "uint256",
          "internalType": "uint256"
        }
      ],
      "outputs": [
        {
          "name": "",
          "type": "tuple",
          "internalType": "struct Paynapple.MenuItem",
          "components": [
            {
              "name": "id",
              "type": "uint256",
              "internalType": "uint256"
            },
            {
              "name": "name",
              "type": "string",
              "internalType": "string"
            },
            {
              "name": "image",
              "type": "string",
              "internalType": "string"
            },
            {
              "name": "description",
              "type": "string",
              "internalType": "string"
            },
            {
              "name": "price",
              "type": "uint256",
              "internalType": "uint256"
            },
            {
              "name": "itemCategory",
              "type": "uint8",
              "internalType": "enum Paynapple.Category"
            },
            {
              "name": "stockCount",
              "type": "uint256",
              "internalType": "uint256"
            }
          ]
        }
      ],
      "stateMutability": "view"
    },
    {
      "type": "function",
      "name": "getMenuItemsCount",
      "inputs": [],
      "outputs": [
        {
          "name": "",
          "type": "uint256",
          "internalType": "uint256"
        }
      ],
      "stateMutability": "view"
    },
    {
      "type": "function",
      "name": "getOwner",
      "inputs": [],
      "outputs": [
        {
          "name": "",
          "type": "address",
          "internalType": "address"
        }
      ],
      "stateMutability": "view"
    },
    {
      "type": "function",
      "name": "getShopOwner",
      "inputs": [],
      "outputs": [
        {
          "name": "",
          "type": "address",
          "internalType": "address"
        }
      ],
      "stateMutability": "view"
    },
    {
      "type": "function",
      "name": "setShopOwner",
      "inputs": [
        {
          "name": "shopOwner",
          "type": "address",
          "internalType": "address"
        }
      ],
      "outputs": [],
      "stateMutability": "nonpayable"
    },
    {
      "type": "function",
      "name": "withdraw",
      "inputs": [],
      "outputs": [],
      "stateMutability": "nonpayable"
    },
    {
      "type": "event",
      "name": "MenuItemAdded",
      "inputs": [
        {
          "name": "id",
          "type": "uint256",
          "indexed": false,
          "internalType": "uint256"
        },
        {
          "name": "name",
          "type": "string",
          "indexed": false,
          "internalType": "string"
        },
        {
          "name": "description",
          "type": "string",
          "indexed": false,
          "internalType": "string"
        },
        {
          "name": "price",
          "type": "uint256",
          "indexed": false,
          "internalType": "uint256"
        },
        {
          "name": "itemCategory",
          "type": "uint8",
          "indexed": false,
          "internalType": "enum Paynapple.Category"
        }
      ],
      "anonymous": false
    },
    {
      "type": "error",
      "name": "Paynapple__NotAuthorized",
      "inputs": []
    },
    {
      "type": "error",
      "name": "Paynapple__NotEnoughStock",
      "inputs": []
    }
  ],
  "bytecode": {
    "object": "0x60806040523480156200001157600080fd5b506040516200377f3803806200377f8339810160408190526200003491620007ad565b60058054336001600160a01b031991821617909155600080549091166001600160a01b038316179055620000676200006e565b5062000a3f565b6040805160c081018252600460808201908152634d656e7560e01b60a0830152815260006020808301829052928201819052606082018190528052600990915280517fec8156718a8372b1db44bb411437d0870f3e3790d4a08526d024ce1b0b668f6b908190620000e090826200089c565b50602082015160018083018054909160ff19909116908360028111156200010b576200010b620007df565b02179055506040828101516002830155606092830151600390920191909155805160c08101825260086080820190815267496e2d53746f726560c01b60a08301528152600160208083018290526000938301849052938201839052909152600990915280517f92e85d02570a8092d09a6e3a57665bc3815a2699a4074001bf1ccabf660f5a36908190620001a090826200089c565b50602082015160018083018054909160ff1990911690836002811115620001cb57620001cb620007df565b021790555060408201518160020155606082015181600301559050506040518060800160405280604051806040016040528060068152602001654f6e6c696e6560d01b81525081526020016002808111156200022b576200022b620007df565b8152600060208083018290526040909201819052600290526009905280517f6cde3cea4b3a3fb2488b2808bae7556f4a405e50f65e1794383bc026131b13c39081906200027990826200089c565b50602082015160018083018054909160ff1990911690836002811115620002a457620002a4620007df565b02179055506040820151816002015560608201518160030155905050620003456040518060400160405280600c81526020016b21b432b2b9b2b13ab933b2b960a11b8152506040518060400160405280601881526020017f412064656c6963696f75732063686565736562757267657200000000000000008152506040518060e0016040528060a381526020016200363660a39139600a60006064620004b0565b620003cc6040518060400160405280600e81526020016d43686f636f6c6174652043616b6560901b8152506040518060400160405280601a81526020017f412064656c6963696f75732063686f636f6c6174652063616b650000000000008152506040518060e0016040528060a68152602001620036d960a69139600560016064620004b0565b6200043c60405180604001604052806004815260200163436f6b6560e01b81525060405180604001604052806011815260200170412072656672657368696e6720636f6b6560781b8152506040518060e0016040528060a68152602001620034ea60a691396002806064620004b0565b620004ae60405180604001604052806005815260200164467269657360d81b81525060405180604001604052806011815260200170412064656c6963696f757320667269657360781b8152506040518060e0016040528060a681526020016200359060a69139600360026064620004b0565b565b6005546001600160a01b03163314620004dc576040516320782e4f60e11b815260040160405180910390fd5b60006040518060e0016040528060015481526020018881526020018681526020018781526020018581526020018460028111156200051e576200051e620007df565b81526020908101849052600780546001810182556000829052835191027fa66cc928b5edb82af9bd49922954155ab7b0942694bea4ce44661d9a8736c688810191825591830151929350839290917fa66cc928b5edb82af9bd49922954155ab7b0942694bea4ce44661d9a8736c68901906200059b90826200089c565b5060408201516002820190620005b290826200089c565b5060608201516003820190620005c990826200089c565b506080820151600482015560a082015160058201805460ff19166001836002811115620005fa57620005fa620007df565b021790555060c09190910151600690910155600180546000908152600860209081526040909120835181559083015183928201906200063a90826200089c565b50604082015160028201906200065190826200089c565b50606082015160038201906200066890826200089c565b506080820151600482015560a082015160058201805460ff19166001836002811115620006995762000699620007df565b021790555060c0919091015160069091015560018054906000620006bd8362000968565b9091555060009050836002811115620006da57620006da620007df565b03620006fd5760028054906000620006f28362000968565b919050555062000761565b6001836002811115620007145762000714620007df565b036200072c5760038054906000620006f28362000968565b6002836002811115620007435762000743620007df565b036200076157600480549060006200075b8362000968565b91905055505b7f9eca3cb3de8db8551c03108124d00400edcc3414dc83884fbd54d02bfbf4e169600154888887876040516200079c959493929190620009d8565b60405180910390a150505050505050565b600060208284031215620007c057600080fd5b81516001600160a01b0381168114620007d857600080fd5b9392505050565b634e487b7160e01b600052602160045260246000fd5b634e487b7160e01b600052604160045260246000fd5b600181811c908216806200082057607f821691505b6020821081036200084157634e487b7160e01b600052602260045260246000fd5b50919050565b601f82111562000897576000816000526020600020601f850160051c81016020861015620008725750805b601f850160051c820191505b8181101562000893578281556001016200087e565b5050505b505050565b81516001600160401b03811115620008b857620008b8620007f5565b620008d081620008c984546200080b565b8462000847565b602080601f831160018114620009085760008415620008ef5750858301515b600019600386901b1c1916600185901b17855562000893565b600085815260208120601f198616915b82811015620009395788860151825594840194600190910190840162000918565b5085821015620009585787850151600019600388901b60f8161c191681555b5050505050600190811b01905550565b6000600182016200098957634e487b7160e01b600052601160045260246000fd5b5060010190565b6000815180845260005b81811015620009b8576020818501810151868301820152016200099a565b506000602082860101526020601f19601f83011685010191505092915050565b85815260a060208201526000620009f360a083018762000990565b828103604084015262000a07818762000990565b9150508360608301526003831062000a2f57634e487b7160e01b600052602160045260246000fd5b8260808301529695505050505050565b612a9b8062000a4f6000396000f3fe60806040526004361061010d5760003560e01c8063893d20e811610095578063e0890e4b11610064578063e0890e4b14610446578063e1977bc91461045b578063ecfd6dc71461047b578063f0b61ce514610490578063f943eecd146104b257600080fd5b8063893d20e8146103eb5780639979c00914610409578063db69c74a1461041c578063dc4219381461043157600080fd5b80632c300125116100dc5780632c3001251461035a5780633ccfd60b1461036f5780634933da7314610384578063719ae375146103b65780638148164b146103d657600080fd5b806310f505ac146102d557806312065fe01461030057806318aef5d2146103235780631912b9c41461033857600080fd5b366102d05760016000908152600960205260408051608081019091527f92e85d02570a8092d09a6e3a57665bc3815a2699a4074001bf1ccabf660f5a36805482908290610159906122b6565b80601f0160208091040260200160405190810160405280929190818152602001828054610185906122b6565b80156101d25780601f106101a7576101008083540402835291602001916101d2565b820191906000526020600020905b8154815290600101906020018083116101b557829003601f168201915b5050509183525050600182015460209091019060ff1660028111156101f9576101f96122a0565b600281111561020a5761020a6122a0565b815260200160028201548152602001600382015481525050905034816040018181516102369190612306565b9052506060810180516001919061024e908390612306565b90525060016000526009602052805181907f92e85d02570a8092d09a6e3a57665bc3815a2699a4074001bf1ccabf660f5a3690819061028d9082612386565b50602082015160018083018054909160ff19909116908360028111156102b5576102b56122a0565b02179055506040820151816002015560608201518160030155005b600080fd5b3480156102e157600080fd5b506102ea6104df565b6040516102f79190612531565b60405180910390f35b34801561030c57600080fd5b506103156107f9565b6040519081526020016102f7565b34801561032f57600080fd5b50600154610315565b34801561034457600080fd5b50610358610353366004612636565b61086b565b005b34801561036657600080fd5b50600254610315565b34801561037b57600080fd5b50610358610b3b565b34801561039057600080fd5b506006546001600160a01b03165b6040516001600160a01b0390911681526020016102f7565b3480156103c257600080fd5b506103586103d13660046126e1565b610c52565b3480156103e257600080fd5b50600354610315565b3480156103f757600080fd5b506005546001600160a01b031661039e565b610358610417366004612797565b610e65565b34801561042857600080fd5b506102ea61135a565b34801561043d57600080fd5b506102ea61166c565b34801561045257600080fd5b506102ea61197e565b34801561046757600080fd5b506103586104763660046127b9565b611be4565b34801561048757600080fd5b50600454610315565b34801561049c57600080fd5b506104a5611c31565b6040516102f791906127e9565b3480156104be57600080fd5b506104d26104cd36600461287d565b61201e565b6040516102f79190612896565b6060600060015467ffffffffffffffff8111156104fe576104fe61231f565b60405190808252806020026020018201604052801561053757816020015b610524612252565b81526020019060019003908161051c5790505b5090506000805b6001548110156107f15760016007828154811061055d5761055d6128a9565b600091825260209091206005600790920201015460ff166002811115610585576105856122a0565b036107e9576007818154811061059d5761059d6128a9565b90600052602060002090600702016040518060e0016040529081600082015481526020016001820180546105d0906122b6565b80601f01602080910402602001604051908101604052809291908181526020018280546105fc906122b6565b80156106495780601f1061061e57610100808354040283529160200191610649565b820191906000526020600020905b81548152906001019060200180831161062c57829003601f168201915b50505050508152602001600282018054610662906122b6565b80601f016020809104026020016040519081016040528092919081815260200182805461068e906122b6565b80156106db5780601f106106b0576101008083540402835291602001916106db565b820191906000526020600020905b8154815290600101906020018083116106be57829003601f168201915b505050505081526020016003820180546106f4906122b6565b80601f0160208091040260200160405190810160405280929190818152602001828054610720906122b6565b801561076d5780601f106107425761010080835404028352916020019161076d565b820191906000526020600020905b81548152906001019060200180831161075057829003601f168201915b505050918352505060048201546020820152600582015460409091019060ff16600281111561079e5761079e6122a0565b60028111156107af576107af6122a0565b81526020016006820154815250508383815181106107cf576107cf6128a9565b602002602001018190525081806107e5906128bf565b9250505b60010161053e565b509092915050565b600080546040516370a0823160e01b81523060048201526001600160a01b03909116906370a0823190602401602060405180830381865afa158015610842573d6000803e3d6000fd5b505050506040513d601f19601f8201168201806040525081019061086691906128d8565b905090565b6005546001600160a01b03163314610896576040516320782e4f60e11b815260040160405180910390fd5b60006040518060e0016040528060015481526020018881526020018681526020018781526020018581526020018460028111156108d5576108d56122a0565b81526020908101849052600780546001810182556000829052835191027fa66cc928b5edb82af9bd49922954155ab7b0942694bea4ce44661d9a8736c688810191825591830151929350839290917fa66cc928b5edb82af9bd49922954155ab7b0942694bea4ce44661d9a8736c68901906109509082612386565b50604082015160028201906109659082612386565b506060820151600382019061097a9082612386565b506080820151600482015560a082015160058201805460ff191660018360028111156109a8576109a86122a0565b021790555060c09190910151600690910155600180546000908152600860209081526040909120835181559083015183928201906109e69082612386565b50604082015160028201906109fb9082612386565b5060608201516003820190610a109082612386565b506080820151600482015560a082015160058201805460ff19166001836002811115610a3e57610a3e6122a0565b021790555060c0919091015160069091015560018054906000610a60836128bf565b9091555060009050836002811115610a7a57610a7a6122a0565b03610a995760028054906000610a8f836128bf565b9190505550610af1565b6001836002811115610aad57610aad6122a0565b03610ac25760038054906000610a8f836128bf565b6002836002811115610ad657610ad66122a0565b03610af15760048054906000610aeb836128bf565b91905055505b7f9eca3cb3de8db8551c03108124d00400edcc3414dc83884fbd54d02bfbf4e16960015488888787604051610b2a9594939291906128f1565b60405180910390a150505050505050565b6006546001600160a01b03163314610b66576040516320782e4f60e11b815260040160405180910390fd5b600080546040516370a0823160e01b81523060048201526001600160a01b03909116906370a0823190602401602060405180830381865afa158015610baf573d6000803e3d6000fd5b505050506040513d601f19601f82011682018060405250810190610bd391906128d8565b60005460055460405163a9059cbb60e01b81526001600160a01b03918216600482015260248101849052929350169063a9059cbb906044016020604051808303816000875af1158015610c2a573d6000803e3d6000fd5b505050506040513d601f19601f82011682018060405250810190610c4e919061293e565b5050565b6005546001600160a01b03163314610c7d576040516320782e4f60e11b815260040160405180910390fd5b8560078881548110610c9157610c916128a9565b90600052602060002090600702016001019081610cae9190612386565b508460078881548110610cc357610cc36128a9565b90600052602060002090600702016003019081610ce09190612386565b508360078881548110610cf557610cf56128a9565b90600052602060002090600702016002019081610d129190612386565b508260078881548110610d2757610d276128a9565b9060005260206000209060070201600401819055508160078881548110610d5057610d506128a9565b60009182526020909120600560079092020101805460ff19166001836002811115610d7d57610d7d6122a0565b02179055508060078881548110610d9657610d966128a9565b90600052602060002090600702016006018190555060078781548110610dbe57610dbe6128a9565b600091825260208083208a84526008909152604090922060079091029091018054825590600180820190610df490840182612960565b50600281810190610e0790840182612960565b50600381810190610e1a90840182612960565b5060048281015490820155600580830154908201805460ff9092169160ff19166001836002811115610e4e57610e4e6122a0565b021790555060069182015491015550505050505050565b600060078381548110610e7a57610e7a6128a9565b90600052602060002090600702016040518060e001604052908160008201548152602001600182018054610ead906122b6565b80601f0160208091040260200160405190810160405280929190818152602001828054610ed9906122b6565b8015610f265780601f10610efb57610100808354040283529160200191610f26565b820191906000526020600020905b815481529060010190602001808311610f0957829003601f168201915b50505050508152602001600282018054610f3f906122b6565b80601f0160208091040260200160405190810160405280929190818152602001828054610f6b906122b6565b8015610fb85780601f10610f8d57610100808354040283529160200191610fb8565b820191906000526020600020905b815481529060010190602001808311610f9b57829003601f168201915b50505050508152602001600382018054610fd1906122b6565b80601f0160208091040260200160405190810160405280929190818152602001828054610ffd906122b6565b801561104a5780601f1061101f5761010080835404028352916020019161104a565b820191906000526020600020905b81548152906001019060200180831161102d57829003601f168201915b505050918352505060048201546020820152600582015460409091019060ff16600281111561107b5761107b6122a0565b600281111561108c5761108c6122a0565b81526020016006820154815250509050818160c0015110156110c15760405163dc8919cd60e01b815260040160405180910390fd5b60008282608001516110d39190612a3b565b9050828260c0018181516110e79190612a52565b9052506007805483919086908110611101576111016128a9565b906000526020600020906007020160008201518160000155602082015181600101908161112e9190612386565b50604082015160028201906111439082612386565b50606082015160038201906111589082612386565b506080820151600482015560a082015160058201805460ff19166001836002811115611186576111866122a0565b021790555060c091909101516006909101556000808052600960205260408051608081019091527fec8156718a8372b1db44bb411437d0870f3e3790d4a08526d024ce1b0b668f6b8054829082906111dd906122b6565b80601f0160208091040260200160405190810160405280929190818152602001828054611209906122b6565b80156112565780601f1061122b57610100808354040283529160200191611256565b820191906000526020600020905b81548152906001019060200180831161123957829003601f168201915b5050509183525050600182015460209091019060ff16600281111561127d5761127d6122a0565b600281111561128e5761128e6122a0565b815260200160028201548152602001600382015481525050905081816040018181516112ba9190612306565b905250606081018051600191906112d2908390612306565b905250600080526009602052805181907fec8156718a8372b1db44bb411437d0870f3e3790d4a08526d024ce1b0b668f6b9081906113109082612386565b50602082015160018083018054909160ff1990911690836002811115611338576113386122a0565b0217905550604082015160028201556060909101516003909101555050505050565b6060600060015467ffffffffffffffff8111156113795761137961231f565b6040519080825280602002602001820160405280156113b257816020015b61139f612252565b8152602001906001900390816113975790505b5090506000805b6001548110156107f1576000600782815481106113d8576113d86128a9565b600091825260209091206005600790920201015460ff166002811115611400576114006122a0565b036116645760078181548110611418576114186128a9565b90600052602060002090600702016040518060e00160405290816000820154815260200160018201805461144b906122b6565b80601f0160208091040260200160405190810160405280929190818152602001828054611477906122b6565b80156114c45780601f10611499576101008083540402835291602001916114c4565b820191906000526020600020905b8154815290600101906020018083116114a757829003601f168201915b505050505081526020016002820180546114dd906122b6565b80601f0160208091040260200160405190810160405280929190818152602001828054611509906122b6565b80156115565780601f1061152b57610100808354040283529160200191611556565b820191906000526020600020905b81548152906001019060200180831161153957829003601f168201915b5050505050815260200160038201805461156f906122b6565b80601f016020809104026020016040519081016040528092919081815260200182805461159b906122b6565b80156115e85780601f106115bd576101008083540402835291602001916115e8565b820191906000526020600020905b8154815290600101906020018083116115cb57829003601f168201915b505050918352505060048201546020820152600582015460409091019060ff166002811115611619576116196122a0565b600281111561162a5761162a6122a0565b815260200160068201548152505083838151811061164a5761164a6128a9565b60200260200101819052508180611660906128bf565b9250505b6001016113b9565b6060600060015467ffffffffffffffff81111561168b5761168b61231f565b6040519080825280602002602001820160405280156116c457816020015b6116b1612252565b8152602001906001900390816116a95790505b5090506000805b6001548110156107f1576002600782815481106116ea576116ea6128a9565b600091825260209091206005600790920201015460ff166002811115611712576117126122a0565b03611976576007818154811061172a5761172a6128a9565b90600052602060002090600702016040518060e00160405290816000820154815260200160018201805461175d906122b6565b80601f0160208091040260200160405190810160405280929190818152602001828054611789906122b6565b80156117d65780601f106117ab576101008083540402835291602001916117d6565b820191906000526020600020905b8154815290600101906020018083116117b957829003601f168201915b505050505081526020016002820180546117ef906122b6565b80601f016020809104026020016040519081016040528092919081815260200182805461181b906122b6565b80156118685780601f1061183d57610100808354040283529160200191611868565b820191906000526020600020905b81548152906001019060200180831161184b57829003601f168201915b50505050508152602001600382018054611881906122b6565b80601f01602080910402602001604051908101604052809291908181526020018280546118ad906122b6565b80156118fa5780601f106118cf576101008083540402835291602001916118fa565b820191906000526020600020905b8154815290600101906020018083116118dd57829003601f168201915b505050918352505060048201546020820152600582015460409091019060ff16600281111561192b5761192b6122a0565b600281111561193c5761193c6122a0565b815260200160068201548152505083838151811061195c5761195c6128a9565b60200260200101819052508180611972906128bf565b9250505b6001016116cb565b60606007805480602002602001604051908101604052809291908181526020016000905b82821015611bdb57838290600052602060002090600702016040518060e0016040529081600082015481526020016001820180546119df906122b6565b80601f0160208091040260200160405190810160405280929190818152602001828054611a0b906122b6565b8015611a585780601f10611a2d57610100808354040283529160200191611a58565b820191906000526020600020905b815481529060010190602001808311611a3b57829003601f168201915b50505050508152602001600282018054611a71906122b6565b80601f0160208091040260200160405190810160405280929190818152602001828054611a9d906122b6565b8015611aea5780601f10611abf57610100808354040283529160200191611aea565b820191906000526020600020905b815481529060010190602001808311611acd57829003601f168201915b50505050508152602001600382018054611b03906122b6565b80601f0160208091040260200160405190810160405280929190818152602001828054611b2f906122b6565b8015611b7c5780601f10611b5157610100808354040283529160200191611b7c565b820191906000526020600020905b815481529060010190602001808311611b5f57829003601f168201915b505050918352505060048201546020820152600582015460409091019060ff166002811115611bad57611bad6122a0565b6002811115611bbe57611bbe6122a0565b8152602001600682015481525050815260200190600101906119a2565b50505050905090565b6005546001600160a01b03163314611c0f576040516320782e4f60e11b815260040160405180910390fd5b600680546001600160a01b0319166001600160a01b0392909216919091179055565b6040805160038082526080820190925260609160009190816020015b611c79604080516080810190915260608152602081016000815260200160008152602001600081525090565b815260200190600190039081611c4d57505060008052600960205260408051608081019091527fec8156718a8372b1db44bb411437d0870f3e3790d4a08526d024ce1b0b668f6b8054929350909182908290611cd4906122b6565b80601f0160208091040260200160405190810160405280929190818152602001828054611d00906122b6565b8015611d4d5780601f10611d2257610100808354040283529160200191611d4d565b820191906000526020600020905b815481529060010190602001808311611d3057829003601f168201915b5050509183525050600182015460209091019060ff166002811115611d7457611d746122a0565b6002811115611d8557611d856122a0565b81526020016002820154815260200160038201548152505081600081518110611db057611db06128a9565b60209081029190910181019190915260016000526009905260408051608081019091527f92e85d02570a8092d09a6e3a57665bc3815a2699a4074001bf1ccabf660f5a36805482908290611e03906122b6565b80601f0160208091040260200160405190810160405280929190818152602001828054611e2f906122b6565b8015611e7c5780601f10611e5157610100808354040283529160200191611e7c565b820191906000526020600020905b815481529060010190602001808311611e5f57829003601f168201915b5050509183525050600182015460209091019060ff166002811115611ea357611ea36122a0565b6002811115611eb457611eb46122a0565b81526020016002820154815260200160038201548152505081600181518110611edf57611edf6128a9565b60209081029190910181019190915260026000526009905260408051608081019091527f6cde3cea4b3a3fb2488b2808bae7556f4a405e50f65e1794383bc026131b13c3805482908290611f32906122b6565b80601f0160208091040260200160405190810160405280929190818152602001828054611f5e906122b6565b8015611fab5780601f10611f8057610100808354040283529160200191611fab565b820191906000526020600020905b815481529060010190602001808311611f8e57829003601f168201915b5050509183525050600182015460209091019060ff166002811115611fd257611fd26122a0565b6002811115611fe357611fe36122a0565b8152602001600282015481526020016003820154815250508160028151811061200e5761200e6128a9565b6020908102919091010152919050565b612026612252565b600860008381526020019081526020016000206040518060e00160405290816000820154815260200160018201805461205e906122b6565b80601f016020809104026020016040519081016040528092919081815260200182805461208a906122b6565b80156120d75780601f106120ac576101008083540402835291602001916120d7565b820191906000526020600020905b8154815290600101906020018083116120ba57829003601f168201915b505050505081526020016002820180546120f0906122b6565b80601f016020809104026020016040519081016040528092919081815260200182805461211c906122b6565b80156121695780601f1061213e57610100808354040283529160200191612169565b820191906000526020600020905b81548152906001019060200180831161214c57829003601f168201915b50505050508152602001600382018054612182906122b6565b80601f01602080910402602001604051908101604052809291908181526020018280546121ae906122b6565b80156121fb5780601f106121d0576101008083540402835291602001916121fb565b820191906000526020600020905b8154815290600101906020018083116121de57829003601f168201915b505050918352505060048201546020820152600582015460409091019060ff16600281111561222c5761222c6122a0565b600281111561223d5761223d6122a0565b81526020016006820154815250509050919050565b6040518060e00160405280600081526020016060815260200160608152602001606081526020016000815260200160006002811115612293576122936122a0565b8152602001600081525090565b634e487b7160e01b600052602160045260246000fd5b600181811c908216806122ca57607f821691505b6020821081036122ea57634e487b7160e01b600052602260045260246000fd5b50919050565b634e487b7160e01b600052601160045260246000fd5b80820180821115612319576123196122f0565b92915050565b634e487b7160e01b600052604160045260246000fd5b601f821115612381576000816000526020600020601f850160051c8101602086101561235e5750805b601f850160051c820191505b8181101561237d5782815560010161236a565b5050505b505050565b815167ffffffffffffffff8111156123a0576123a061231f565b6123b4816123ae84546122b6565b84612335565b602080601f8311600181146123e957600084156123d15750858301515b600019600386901b1c1916600185901b17855561237d565b600085815260208120601f198616915b82811015612418578886015182559484019460019091019084016123f9565b50858210156124365787850151600019600388901b60f8161c191681555b5050505050600190811b01905550565b6000815180845260005b8181101561246c57602081850181015186830182015201612450565b506000602082860101526020601f19601f83011685010191505092915050565b600381106124aa57634e487b7160e01b600052602160045260246000fd5b50565b805182526000602082015160e060208501526124cc60e0850182612446565b9050604083015184820360408601526124e58282612446565b915050606083015184820360608601526124ff8282612446565b9150506080830151608085015260a083015161251a8161248c565b60a085015260c09283015192909301919091525090565b600060208083016020845280855180835260408601915060408160051b87010192506020870160005b8281101561258857603f198886030184526125768583516124ad565b9450928501929085019060010161255a565b5092979650505050505050565b600082601f8301126125a657600080fd5b813567ffffffffffffffff808211156125c1576125c161231f565b604051601f8301601f19908116603f011681019082821181831017156125e9576125e961231f565b8160405283815286602085880101111561260257600080fd5b836020870160208301376000602085830101528094505050505092915050565b80356003811061263157600080fd5b919050565b60008060008060008060c0878903121561264f57600080fd5b863567ffffffffffffffff8082111561266757600080fd5b6126738a838b01612595565b9750602089013591508082111561268957600080fd5b6126958a838b01612595565b965060408901359150808211156126ab57600080fd5b506126b889828a01612595565b945050606087013592506126ce60808801612622565b915060a087013590509295509295509295565b600080600080600080600060e0888a0312156126fc57600080fd5b87359650602088013567ffffffffffffffff8082111561271b57600080fd5b6127278b838c01612595565b975060408a013591508082111561273d57600080fd5b6127498b838c01612595565b965060608a013591508082111561275f57600080fd5b5061276c8a828b01612595565b9450506080880135925061278260a08901612622565b915060c0880135905092959891949750929550565b600080604083850312156127aa57600080fd5b50508035926020909101359150565b6000602082840312156127cb57600080fd5b81356001600160a01b03811681146127e257600080fd5b9392505050565b600060208083018184528085518083526040925060408601915060408160051b87010184880160005b8381101561286f57603f1989840301855281516080815181865261283882870182612446565b915050888201516128488161248c565b858a0152818801518886015260609182015191909401529386019390860190600101612812565b509098975050505050505050565b60006020828403121561288f57600080fd5b5035919050565b6020815260006127e260208301846124ad565b634e487b7160e01b600052603260045260246000fd5b6000600182016128d1576128d16122f0565b5060010190565b6000602082840312156128ea57600080fd5b5051919050565b85815260a06020820152600061290a60a0830187612446565b828103604084015261291c8187612446565b91505083606083015261292e8361248c565b8260808301529695505050505050565b60006020828403121561295057600080fd5b815180151581146127e257600080fd5b81810361296b575050565b61297582546122b6565b67ffffffffffffffff81111561298d5761298d61231f565b61299b816123ae84546122b6565b6000601f8211600181146129cf57600083156129b75750848201545b600019600385901b1c1916600184901b178455612a34565b600085815260209020601f19841690600086815260209020845b83811015612a0957828601548255600195860195909101906020016129e9565b5085831015612a275781850154600019600388901b60f8161c191681555b50505060018360011b0184555b5050505050565b8082028115828204841417612319576123196122f0565b81810381811115612319576123196122f056fea2646970667358221220ecb6adbd5e46d6a8ff5ecc1cf615c904edce02d65bf6910c878d826262522b1064736f6c6343000817003368747470733a2f2f696d616765732e756e73706c6173682e636f6d2f70686f746f2d313632323438333736373032382d3366363666333261656639373f713d383026773d32393430266175746f3d666f726d6174266669743d63726f702669786c69623d72622d342e302e3326697869643d4d3377784d6a4133664442384d48787761473930627931775957646c66487838664756756644423866487838664125334425334468747470733a2f2f696d616765732e756e73706c6173682e636f6d2f70686f746f2d313537363130373233323638342d3132373966333930383539663f713d383026773d32383335266175746f3d666f726d6174266669743d63726f702669786c69623d72622d342e302e3326697869643d4d3377784d6a4133664442384d48787761473930627931775957646c66487838664756756644423866487838664125334425334468747470733a2f2f696d616765732e756e73706c6173682e636f6d2f70686f746f2d313535303534373636302d6439343530663835393334393f713d383026773d32303937266175746f3d666f726d6174266669743d63726f702669786c69623d72622d342e302e3326697869643d4d3377784d6a4133664442384d48787761473930627931775957646c66487838664756756644423866487838664125334425334468747470733a2f2f696d616765732e756e73706c6173682e636f6d2f70686f746f2d313630363839303733373330342d3537613163613861356236323f713d383026773d32333034266175746f3d666f726d6174266669743d63726f702669786c69623d72622d342e302e3326697869643d4d3377784d6a4133664442384d48787761473930627931775957646c664878386647567566444238664878386641253344253344",
    "linkReferences": {}
  },
  "methodIdentifiers": {
    "addMenuItem(string,string,string,uint256,uint8,uint256)": "1912b9c4",
    "buyItem(uint256,uint256)": "9979c009",
    "editItem(uint256,string,string,string,uint256,uint8,uint256)": "719ae375",
    "getAllMenuItems()": "e0890e4b",
    "getAllMenuSales()": "f0b61ce5",
    "getBalance()": "12065fe0",
    "getBurgerCount()": "2c300125",
    "getBurgers()": "db69c74a",
    "getDessertCount()": "8148164b",
    "getDesserts()": "10f505ac",
    "getDrinkCount()": "ecfd6dc7",
    "getDrinks()": "dc421938",
    "getMenuItem(uint256)": "f943eecd",
    "getMenuItemsCount()": "18aef5d2",
    "getOwner()": "893d20e8",
    "getShopOwner()": "4933da73",
    "setShopOwner(address)": "e1977bc9",
    "withdraw()": "3ccfd60b"
  },
  "id": 21
}