{
  "abi": [
    {
      "type": "constructor",
      "inputs": [
        {
          "name": "_stableCoin",
          "type": "address",
          "internalType": "address"
        }
      ],
      "stateMutability": "nonpayable"
    },
    {
      "type": "receive",
      "stateMutability": "payable"
    },
    {
      "type": "function",
      "name": "addMenuItem",
      "inputs": [
        {
          "name": "name",
          "type": "string",
          "internalType": "string"
        },
        {
          "name": "description",
          "type": "string",
          "internalType": "string"
        },
        {
          "name": "image",
          "type": "string",
          "internalType": "string"
        },
        {
          "name": "price",
          "type": "uint256",
          "internalType": "uint256"
        },
        {
          "name": "itemCategory",
          "type": "uint8",
          "internalType": "enum Paynapple.Category"
        },
        {
          "name": "stockCount",
          "type": "uint256",
          "internalType": "uint256"
        }
      ],
      "outputs": [],
      "stateMutability": "nonpayable"
    },
    {
      "type": "function",
      "name": "buyItem",
      "inputs": [
        {
          "name": "id",
          "type": "uint256",
          "internalType": "uint256"
        },
        {
          "name": "quantity",
          "type": "uint256",
          "internalType": "uint256"
        }
      ],
      "outputs": [],
      "stateMutability": "payable"
    },
    {
      "type": "function",
      "name": "editItem",
      "inputs": [
        {
          "name": "id",
          "type": "uint256",
          "internalType": "uint256"
        },
        {
          "name": "name",
          "type": "string",
          "internalType": "string"
        },
        {
          "name": "description",
          "type": "string",
          "internalType": "string"
        },
        {
          "name": "image",
          "type": "string",
          "internalType": "string"
        },
        {
          "name": "price",
          "type": "uint256",
          "internalType": "uint256"
        },
        {
          "name": "itemCategory",
          "type": "uint8",
          "internalType": "enum Paynapple.Category"
        },
        {
          "name": "stockCount",
          "type": "uint256",
          "internalType": "uint256"
        }
      ],
      "outputs": [],
      "stateMutability": "nonpayable"
    },
    {
      "type": "function",
      "name": "getAllMenuItems",
      "inputs": [],
      "outputs": [
        {
          "name": "",
          "type": "tuple[]",
          "internalType": "struct Paynapple.MenuItem[]",
          "components": [
            {
              "name": "id",
              "type": "uint256",
              "internalType": "uint256"
            },
            {
              "name": "name",
              "type": "string",
              "internalType": "string"
            },
            {
              "name": "image",
              "type": "string",
              "internalType": "string"
            },
            {
              "name": "description",
              "type": "string",
              "internalType": "string"
            },
            {
              "name": "price",
              "type": "uint256",
              "internalType": "uint256"
            },
            {
              "name": "itemCategory",
              "type": "uint8",
              "internalType": "enum Paynapple.Category"
            },
            {
              "name": "stockCount",
              "type": "uint256",
              "internalType": "uint256"
            }
          ]
        }
      ],
      "stateMutability": "view"
    },
    {
      "type": "function",
      "name": "getAllMenuSales",
      "inputs": [],
      "outputs": [
        {
          "name": "",
          "type": "tuple[]",
          "internalType": "struct Paynapple.Sale[]",
          "components": [
            {
              "name": "name",
              "type": "string",
              "internalType": "string"
            },
            {
              "name": "salesType",
              "type": "uint8",
              "internalType": "enum Paynapple.SalesType"
            },
            {
              "name": "amount",
              "type": "uint256",
              "internalType": "uint256"
            },
            {
              "name": "increase",
              "type": "uint256",
              "internalType": "uint256"
            }
          ]
        }
      ],
      "stateMutability": "view"
    },
    {
      "type": "function",
      "name": "getBalance",
      "inputs": [],
      "outputs": [
        {
          "name": "",
          "type": "uint256",
          "internalType": "uint256"
        }
      ],
      "stateMutability": "view"
    },
    {
      "type": "function",
      "name": "getBurgerCount",
      "inputs": [],
      "outputs": [
        {
          "name": "",
          "type": "uint256",
          "internalType": "uint256"
        }
      ],
      "stateMutability": "view"
    },
    {
      "type": "function",
      "name": "getBurgers",
      "inputs": [],
      "outputs": [
        {
          "name": "",
          "type": "tuple[]",
          "internalType": "struct Paynapple.MenuItem[]",
          "components": [
            {
              "name": "id",
              "type": "uint256",
              "internalType": "uint256"
            },
            {
              "name": "name",
              "type": "string",
              "internalType": "string"
            },
            {
              "name": "image",
              "type": "string",
              "internalType": "string"
            },
            {
              "name": "description",
              "type": "string",
              "internalType": "string"
            },
            {
              "name": "price",
              "type": "uint256",
              "internalType": "uint256"
            },
            {
              "name": "itemCategory",
              "type": "uint8",
              "internalType": "enum Paynapple.Category"
            },
            {
              "name": "stockCount",
              "type": "uint256",
              "internalType": "uint256"
            }
          ]
        }
      ],
      "stateMutability": "view"
    },
    {
      "type": "function",
      "name": "getDessertCount",
      "inputs": [],
      "outputs": [
        {
          "name": "",
          "type": "uint256",
          "internalType": "uint256"
        }
      ],
      "stateMutability": "view"
    },
    {
      "type": "function",
      "name": "getDesserts",
      "inputs": [],
      "outputs": [
        {
          "name": "",
          "type": "tuple[]",
          "internalType": "struct Paynapple.MenuItem[]",
          "components": [
            {
              "name": "id",
              "type": "uint256",
              "internalType": "uint256"
            },
            {
              "name": "name",
              "type": "string",
              "internalType": "string"
            },
            {
              "name": "image",
              "type": "string",
              "internalType": "string"
            },
            {
              "name": "description",
              "type": "string",
              "internalType": "string"
            },
            {
              "name": "price",
              "type": "uint256",
              "internalType": "uint256"
            },
            {
              "name": "itemCategory",
              "type": "uint8",
              "internalType": "enum Paynapple.Category"
            },
            {
              "name": "stockCount",
              "type": "uint256",
              "internalType": "uint256"
            }
          ]
        }
      ],
      "stateMutability": "view"
    },
    {
      "type": "function",
      "name": "getDrinkCount",
      "inputs": [],
      "outputs": [
        {
          "name": "",
          "type": "uint256",
          "internalType": "uint256"
        }
      ],
      "stateMutability": "view"
    },
    {
      "type": "function",
      "name": "getDrinks",
      "inputs": [],
      "outputs": [
        {
          "name": "",
          "type": "tuple[]",
          "internalType": "struct Paynapple.MenuItem[]",
          "components": [
            {
              "name": "id",
              "type": "uint256",
              "internalType": "uint256"
            },
            {
              "name": "name",
              "type": "string",
              "internalType": "string"
            },
            {
              "name": "image",
              "type": "string",
              "internalType": "string"
            },
            {
              "name": "description",
              "type": "string",
              "internalType": "string"
            },
            {
              "name": "price",
              "type": "uint256",
              "internalType": "uint256"
            },
            {
              "name": "itemCategory",
              "type": "uint8",
              "internalType": "enum Paynapple.Category"
            },
            {
              "name": "stockCount",
              "type": "uint256",
              "internalType": "uint256"
            }
          ]
        }
      ],
      "stateMutability": "view"
    },
    {
      "type": "function",
      "name": "getMenuItem",
      "inputs": [
        {
          "name": "id",
          "type": "uint256",
          "internalType": "uint256"
        }
      ],
      "outputs": [
        {
          "name": "",
          "type": "tuple",
          "internalType": "struct Paynapple.MenuItem",
          "components": [
            {
              "name": "id",
              "type": "uint256",
              "internalType": "uint256"
            },
            {
              "name": "name",
              "type": "string",
              "internalType": "string"
            },
            {
              "name": "image",
              "type": "string",
              "internalType": "string"
            },
            {
              "name": "description",
              "type": "string",
              "internalType": "string"
            },
            {
              "name": "price",
              "type": "uint256",
              "internalType": "uint256"
            },
            {
              "name": "itemCategory",
              "type": "uint8",
              "internalType": "enum Paynapple.Category"
            },
            {
              "name": "stockCount",
              "type": "uint256",
              "internalType": "uint256"
            }
          ]
        }
      ],
      "stateMutability": "view"
    },
    {
      "type": "function",
      "name": "getMenuItemsCount",
      "inputs": [],
      "outputs": [
        {
          "name": "",
          "type": "uint256",
          "internalType": "uint256"
        }
      ],
      "stateMutability": "view"
    },
    {
      "type": "function",
      "name": "getOwner",
      "inputs": [],
      "outputs": [
        {
          "name": "",
          "type": "address",
          "internalType": "address"
        }
      ],
      "stateMutability": "view"
    },
    {
      "type": "function",
      "name": "withdraw",
      "inputs": [],
      "outputs": [],
      "stateMutability": "nonpayable"
    },
    {
      "type": "event",
      "name": "MenuItemAdded",
      "inputs": [
        {
          "name": "id",
          "type": "uint256",
          "indexed": false,
          "internalType": "uint256"
        },
        {
          "name": "name",
          "type": "string",
          "indexed": false,
          "internalType": "string"
        },
        {
          "name": "description",
          "type": "string",
          "indexed": false,
          "internalType": "string"
        },
        {
          "name": "price",
          "type": "uint256",
          "indexed": false,
          "internalType": "uint256"
        },
        {
          "name": "itemCategory",
          "type": "uint8",
          "indexed": false,
          "internalType": "enum Paynapple.Category"
        }
      ],
      "anonymous": false
    },
    {
      "type": "error",
      "name": "Paynapple__NotAuthorized",
      "inputs": []
    },
    {
      "type": "error",
      "name": "Paynapple__NotEnoughStock",
      "inputs": []
    }
  ],
  "bytecode": {
    "object": "0x60806040523480156200001157600080fd5b50604051620036af380380620036af8339810160408190526200003491620007af565b60058054336001600160a01b031991821617909155600080549091166001600160a01b038316179055620000676200006e565b5062000a41565b6040805160c081018252600460808201908152634d656e7560e01b60a0830152815260006020808301829052928201819052606082018190528052600890915280517f5eff886ea0ce6ca488a3d6e336d6c0f75f46d19b42c06ce5ee98e42c96d256c7908190620000e090826200089e565b50602082015160018083018054909160ff19909116908360028111156200010b576200010b620007e1565b02179055506040828101516002830155606090920151600390910155805160c0810190915260086080820190815267496e2d53746f726560c01b60a0830152815260208101600181526000602082018190526040909101819052600890600160028111156200017e576200017e620007e1565b81526020810191909152604001600020815181906200019e90826200089e565b50602082015160018083018054909160ff1990911690836002811115620001c957620001c9620007e1565b021790555060408201518160020155606082015181600301559050506040518060800160405280604051806040016040528060068152602001654f6e6c696e6560d01b8152508152602001600280811115620002295762000229620007e1565b8152600060208083018290526040909201819052600290526008905280517f6add646517a5b0f6793cd5891b7937d28a5b2981a5d88ebc7cd776088fea90419081906200027790826200089e565b50602082015160018083018054909160ff1990911690836002811115620002a257620002a2620007e1565b02179055506040820151816002015560608201518160030155905050620003436040518060400160405280600c81526020016b21b432b2b9b2b13ab933b2b960a11b8152506040518060400160405280601881526020017f412064656c6963696f75732063686565736562757267657200000000000000008152506040518060e0016040528060a381526020016200356660a39139600a60006064620004ae565b620003ca6040518060400160405280600e81526020016d43686f636f6c6174652043616b6560901b8152506040518060400160405280601a81526020017f412064656c6963696f75732063686f636f6c6174652063616b650000000000008152506040518060e0016040528060a681526020016200360960a69139600560016064620004ae565b6200043a60405180604001604052806004815260200163436f6b6560e01b81525060405180604001604052806011815260200170412072656672657368696e6720636f6b6560781b8152506040518060e0016040528060a681526020016200341a60a691396002806064620004ae565b620004ac60405180604001604052806005815260200164467269657360d81b81525060405180604001604052806011815260200170412064656c6963696f757320667269657360781b8152506040518060e0016040528060a68152602001620034c060a69139600360026064620004ae565b565b6005546001600160a01b03163314620004da576040516320782e4f60e11b815260040160405180910390fd5b60006040518060e0016040528060015481526020018881526020018681526020018781526020018581526020018460028111156200051c576200051c620007e1565b8152602090810184905260068054600181018255600091909152825160079091027ff652222313e28459528d920b65115c16c04f3efc82aaedc97be59f3f377c0d3f810191825591830151929350839290917ff652222313e28459528d920b65115c16c04f3efc82aaedc97be59f3f377c0d4001906200059d90826200089e565b5060408201516002820190620005b490826200089e565b5060608201516003820190620005cb90826200089e565b506080820151600482015560a082015160058201805460ff19166001836002811115620005fc57620005fc620007e1565b021790555060c09190910151600690910155600180546000908152600760209081526040909120835181559083015183928201906200063c90826200089e565b50604082015160028201906200065390826200089e565b50606082015160038201906200066a90826200089e565b506080820151600482015560a082015160058201805460ff191660018360028111156200069b576200069b620007e1565b021790555060c0919091015160069091015560018054906000620006bf836200096a565b9091555060009050836002811115620006dc57620006dc620007e1565b03620006ff5760028054906000620006f4836200096a565b919050555062000763565b6001836002811115620007165762000716620007e1565b036200072e5760038054906000620006f4836200096a565b6002836002811115620007455762000745620007e1565b036200076357600480549060006200075d836200096a565b91905055505b7f9eca3cb3de8db8551c03108124d00400edcc3414dc83884fbd54d02bfbf4e169600154888887876040516200079e959493929190620009da565b60405180910390a150505050505050565b600060208284031215620007c257600080fd5b81516001600160a01b0381168114620007da57600080fd5b9392505050565b634e487b7160e01b600052602160045260246000fd5b634e487b7160e01b600052604160045260246000fd5b600181811c908216806200082257607f821691505b6020821081036200084357634e487b7160e01b600052602260045260246000fd5b50919050565b601f82111562000899576000816000526020600020601f850160051c81016020861015620008745750805b601f850160051c820191505b81811015620008955782815560010162000880565b5050505b505050565b81516001600160401b03811115620008ba57620008ba620007f7565b620008d281620008cb84546200080d565b8462000849565b602080601f8311600181146200090a5760008415620008f15750858301515b600019600386901b1c1916600185901b17855562000895565b600085815260208120601f198616915b828110156200093b578886015182559484019460019091019084016200091a565b50858210156200095a5787850151600019600388901b60f8161c191681555b5050505050600190811b01905550565b6000600182016200098b57634e487b7160e01b600052601160045260246000fd5b5060010190565b6000815180845260005b81811015620009ba576020818501810151868301820152016200099c565b506000602082860101526020601f19601f83011685010191505092915050565b85815260a060208201526000620009f560a083018762000992565b828103604084015262000a09818762000992565b9150508360608301526003831062000a3157634e487b7160e01b600052602160045260246000fd5b8260808301529695505050505050565b6129c98062000a516000396000f3fe6080604052600436106100f75760003560e01c8063893d20e81161008a578063e0890e4b11610059578063e0890e4b14610408578063ecfd6dc71461041d578063f0b61ce514610432578063f943eecd1461045457600080fd5b8063893d20e8146103a35780639979c009146103cb578063db69c74a146103de578063dc421938146103f357600080fd5b80632c300125116100c65780632c300125146103445780633ccfd60b14610359578063719ae3751461036e5780638148164b1461038e57600080fd5b806310f505ac146102bf57806312065fe0146102ea57806318aef5d21461030d5780631912b9c41461032257600080fd5b366102ba5760016000908152600860205260408051608081019091527fad67d757c34507f157cacfa2e3153e9f260a2244f30428821be7be64587ac55f8054829082906101439061220d565b80601f016020809104026020016040519081016040528092919081815260200182805461016f9061220d565b80156101bc5780601f10610191576101008083540402835291602001916101bc565b820191906000526020600020905b81548152906001019060200180831161019f57829003601f168201915b5050509183525050600182015460209091019060ff1660028111156101e3576101e36121f7565b60028111156101f4576101f46121f7565b81526020016002820154815260200160038201548152505090503481604001818151610220919061225d565b9052506060810180516001919061023890839061225d565b90525060016000526008602052805181907fad67d757c34507f157cacfa2e3153e9f260a2244f30428821be7be64587ac55f90819061027790826122dd565b50602082015160018083018054909160ff199091169083600281111561029f5761029f6121f7565b02179055506040820151816002015560608201518160030155005b600080fd5b3480156102cb57600080fd5b506102d4610481565b6040516102e19190612488565b60405180910390f35b3480156102f657600080fd5b506102ff61079b565b6040519081526020016102e1565b34801561031957600080fd5b506001546102ff565b34801561032e57600080fd5b5061034261033d36600461258d565b61080d565b005b34801561035057600080fd5b506002546102ff565b34801561036557600080fd5b50610342610ae1565b34801561037a57600080fd5b50610342610389366004612638565b610bf8565b34801561039a57600080fd5b506003546102ff565b3480156103af57600080fd5b506005546040516001600160a01b0390911681526020016102e1565b6103426103d93660046126ee565b610e09565b3480156103ea57600080fd5b506102d46112fe565b3480156103ff57600080fd5b506102d4611610565b34801561041457600080fd5b506102d4611922565b34801561042957600080fd5b506004546102ff565b34801561043e57600080fd5b50610447611b88565b6040516102e19190612710565b34801561046057600080fd5b5061047461046f3660046127a4565b611f75565b6040516102e191906127bd565b6060600060015467ffffffffffffffff8111156104a0576104a0612276565b6040519080825280602002602001820160405280156104d957816020015b6104c66121a9565b8152602001906001900390816104be5790505b5090506000805b600154811015610793576001600682815481106104ff576104ff6127d7565b600091825260209091206005600790920201015460ff166002811115610527576105276121f7565b0361078b576006818154811061053f5761053f6127d7565b90600052602060002090600702016040518060e0016040529081600082015481526020016001820180546105729061220d565b80601f016020809104026020016040519081016040528092919081815260200182805461059e9061220d565b80156105eb5780601f106105c0576101008083540402835291602001916105eb565b820191906000526020600020905b8154815290600101906020018083116105ce57829003601f168201915b505050505081526020016002820180546106049061220d565b80601f01602080910402602001604051908101604052809291908181526020018280546106309061220d565b801561067d5780601f106106525761010080835404028352916020019161067d565b820191906000526020600020905b81548152906001019060200180831161066057829003601f168201915b505050505081526020016003820180546106969061220d565b80601f01602080910402602001604051908101604052809291908181526020018280546106c29061220d565b801561070f5780601f106106e45761010080835404028352916020019161070f565b820191906000526020600020905b8154815290600101906020018083116106f257829003601f168201915b505050918352505060048201546020820152600582015460409091019060ff166002811115610740576107406121f7565b6002811115610751576107516121f7565b8152602001600682015481525050838381518110610771576107716127d7565b60200260200101819052508180610787906127ed565b9250505b6001016104e0565b509092915050565b600080546040516370a0823160e01b81523060048201526001600160a01b03909116906370a0823190602401602060405180830381865afa1580156107e4573d6000803e3d6000fd5b505050506040513d601f19601f820116820180604052508101906108089190612806565b905090565b6005546001600160a01b03163314610838576040516320782e4f60e11b815260040160405180910390fd5b60006040518060e001604052806001548152602001888152602001868152602001878152602001858152602001846002811115610877576108776121f7565b8152602090810184905260068054600181018255600091909152825160079091027ff652222313e28459528d920b65115c16c04f3efc82aaedc97be59f3f377c0d3f810191825591830151929350839290917ff652222313e28459528d920b65115c16c04f3efc82aaedc97be59f3f377c0d4001906108f690826122dd565b506040820151600282019061090b90826122dd565b506060820151600382019061092090826122dd565b506080820151600482015560a082015160058201805460ff1916600183600281111561094e5761094e6121f7565b021790555060c091909101516006909101556001805460009081526007602090815260409091208351815590830151839282019061098c90826122dd565b50604082015160028201906109a190826122dd565b50606082015160038201906109b690826122dd565b506080820151600482015560a082015160058201805460ff191660018360028111156109e4576109e46121f7565b021790555060c0919091015160069091015560018054906000610a06836127ed565b9091555060009050836002811115610a2057610a206121f7565b03610a3f5760028054906000610a35836127ed565b9190505550610a97565b6001836002811115610a5357610a536121f7565b03610a685760038054906000610a35836127ed565b6002836002811115610a7c57610a7c6121f7565b03610a975760048054906000610a91836127ed565b91905055505b7f9eca3cb3de8db8551c03108124d00400edcc3414dc83884fbd54d02bfbf4e16960015488888787604051610ad095949392919061281f565b60405180910390a150505050505050565b6005546001600160a01b03163314610b0c576040516320782e4f60e11b815260040160405180910390fd5b600080546040516370a0823160e01b81523060048201526001600160a01b03909116906370a0823190602401602060405180830381865afa158015610b55573d6000803e3d6000fd5b505050506040513d601f19601f82011682018060405250810190610b799190612806565b60005460055460405163a9059cbb60e01b81526001600160a01b03918216600482015260248101849052929350169063a9059cbb906044016020604051808303816000875af1158015610bd0573d6000803e3d6000fd5b505050506040513d601f19601f82011682018060405250810190610bf4919061286c565b5050565b6005546001600160a01b03163314610c23576040516320782e4f60e11b815260040160405180910390fd5b8560068881548110610c3757610c376127d7565b90600052602060002090600702016001019081610c5491906122dd565b508460068881548110610c6957610c696127d7565b90600052602060002090600702016003019081610c8691906122dd565b508360068881548110610c9b57610c9b6127d7565b90600052602060002090600702016002019081610cb891906122dd565b508260068881548110610ccd57610ccd6127d7565b9060005260206000209060070201600401819055508160068881548110610cf657610cf66127d7565b60009182526020909120600560079092020101805460ff19166001836002811115610d2357610d236121f7565b02179055508060068881548110610d3c57610d3c6127d7565b90600052602060002090600702016006018190555060068781548110610d6457610d646127d7565b600091825260208083208a8452600791829052604090932091029091018054825590600180820190610d989084018261288e565b50600281810190610dab9084018261288e565b50600381810190610dbe9084018261288e565b5060048281015490820155600580830154908201805460ff9092169160ff19166001836002811115610df257610df26121f7565b021790555060069182015491015550505050505050565b600060068381548110610e1e57610e1e6127d7565b90600052602060002090600702016040518060e001604052908160008201548152602001600182018054610e519061220d565b80601f0160208091040260200160405190810160405280929190818152602001828054610e7d9061220d565b8015610eca5780601f10610e9f57610100808354040283529160200191610eca565b820191906000526020600020905b815481529060010190602001808311610ead57829003601f168201915b50505050508152602001600282018054610ee39061220d565b80601f0160208091040260200160405190810160405280929190818152602001828054610f0f9061220d565b8015610f5c5780601f10610f3157610100808354040283529160200191610f5c565b820191906000526020600020905b815481529060010190602001808311610f3f57829003601f168201915b50505050508152602001600382018054610f759061220d565b80601f0160208091040260200160405190810160405280929190818152602001828054610fa19061220d565b8015610fee5780601f10610fc357610100808354040283529160200191610fee565b820191906000526020600020905b815481529060010190602001808311610fd157829003601f168201915b505050918352505060048201546020820152600582015460409091019060ff16600281111561101f5761101f6121f7565b6002811115611030576110306121f7565b81526020016006820154815250509050818160c0015110156110655760405163dc8919cd60e01b815260040160405180910390fd5b60008282608001516110779190612969565b9050828260c00181815161108b9190612980565b90525060068054839190869081106110a5576110a56127d7565b90600052602060002090600702016000820151816000015560208201518160010190816110d291906122dd565b50604082015160028201906110e790826122dd565b50606082015160038201906110fc90826122dd565b506080820151600482015560a082015160058201805460ff1916600183600281111561112a5761112a6121f7565b021790555060c091909101516006909101556000808052600860205260408051608081019091527f5eff886ea0ce6ca488a3d6e336d6c0f75f46d19b42c06ce5ee98e42c96d256c78054829082906111819061220d565b80601f01602080910402602001604051908101604052809291908181526020018280546111ad9061220d565b80156111fa5780601f106111cf576101008083540402835291602001916111fa565b820191906000526020600020905b8154815290600101906020018083116111dd57829003601f168201915b5050509183525050600182015460209091019060ff166002811115611221576112216121f7565b6002811115611232576112326121f7565b8152602001600282015481526020016003820154815250509050818160400181815161125e919061225d565b9052506060810180516001919061127690839061225d565b905250600080526008602052805181907f5eff886ea0ce6ca488a3d6e336d6c0f75f46d19b42c06ce5ee98e42c96d256c79081906112b490826122dd565b50602082015160018083018054909160ff19909116908360028111156112dc576112dc6121f7565b0217905550604082015160028201556060909101516003909101555050505050565b6060600060015467ffffffffffffffff81111561131d5761131d612276565b60405190808252806020026020018201604052801561135657816020015b6113436121a9565b81526020019060019003908161133b5790505b5090506000805b6001548110156107935760006006828154811061137c5761137c6127d7565b600091825260209091206005600790920201015460ff1660028111156113a4576113a46121f7565b0361160857600681815481106113bc576113bc6127d7565b90600052602060002090600702016040518060e0016040529081600082015481526020016001820180546113ef9061220d565b80601f016020809104026020016040519081016040528092919081815260200182805461141b9061220d565b80156114685780601f1061143d57610100808354040283529160200191611468565b820191906000526020600020905b81548152906001019060200180831161144b57829003601f168201915b505050505081526020016002820180546114819061220d565b80601f01602080910402602001604051908101604052809291908181526020018280546114ad9061220d565b80156114fa5780601f106114cf576101008083540402835291602001916114fa565b820191906000526020600020905b8154815290600101906020018083116114dd57829003601f168201915b505050505081526020016003820180546115139061220d565b80601f016020809104026020016040519081016040528092919081815260200182805461153f9061220d565b801561158c5780601f106115615761010080835404028352916020019161158c565b820191906000526020600020905b81548152906001019060200180831161156f57829003601f168201915b505050918352505060048201546020820152600582015460409091019060ff1660028111156115bd576115bd6121f7565b60028111156115ce576115ce6121f7565b81526020016006820154815250508383815181106115ee576115ee6127d7565b60200260200101819052508180611604906127ed565b9250505b60010161135d565b6060600060015467ffffffffffffffff81111561162f5761162f612276565b60405190808252806020026020018201604052801561166857816020015b6116556121a9565b81526020019060019003908161164d5790505b5090506000805b6001548110156107935760026006828154811061168e5761168e6127d7565b600091825260209091206005600790920201015460ff1660028111156116b6576116b66121f7565b0361191a57600681815481106116ce576116ce6127d7565b90600052602060002090600702016040518060e0016040529081600082015481526020016001820180546117019061220d565b80601f016020809104026020016040519081016040528092919081815260200182805461172d9061220d565b801561177a5780601f1061174f5761010080835404028352916020019161177a565b820191906000526020600020905b81548152906001019060200180831161175d57829003601f168201915b505050505081526020016002820180546117939061220d565b80601f01602080910402602001604051908101604052809291908181526020018280546117bf9061220d565b801561180c5780601f106117e15761010080835404028352916020019161180c565b820191906000526020600020905b8154815290600101906020018083116117ef57829003601f168201915b505050505081526020016003820180546118259061220d565b80601f01602080910402602001604051908101604052809291908181526020018280546118519061220d565b801561189e5780601f106118735761010080835404028352916020019161189e565b820191906000526020600020905b81548152906001019060200180831161188157829003601f168201915b505050918352505060048201546020820152600582015460409091019060ff1660028111156118cf576118cf6121f7565b60028111156118e0576118e06121f7565b8152602001600682015481525050838381518110611900576119006127d7565b60200260200101819052508180611916906127ed565b9250505b60010161166f565b60606006805480602002602001604051908101604052809291908181526020016000905b82821015611b7f57838290600052602060002090600702016040518060e0016040529081600082015481526020016001820180546119839061220d565b80601f01602080910402602001604051908101604052809291908181526020018280546119af9061220d565b80156119fc5780601f106119d1576101008083540402835291602001916119fc565b820191906000526020600020905b8154815290600101906020018083116119df57829003601f168201915b50505050508152602001600282018054611a159061220d565b80601f0160208091040260200160405190810160405280929190818152602001828054611a419061220d565b8015611a8e5780601f10611a6357610100808354040283529160200191611a8e565b820191906000526020600020905b815481529060010190602001808311611a7157829003601f168201915b50505050508152602001600382018054611aa79061220d565b80601f0160208091040260200160405190810160405280929190818152602001828054611ad39061220d565b8015611b205780601f10611af557610100808354040283529160200191611b20565b820191906000526020600020905b815481529060010190602001808311611b0357829003601f168201915b505050918352505060048201546020820152600582015460409091019060ff166002811115611b5157611b516121f7565b6002811115611b6257611b626121f7565b815260200160068201548152505081526020019060010190611946565b50505050905090565b6040805160038082526080820190925260609160009190816020015b611bd0604080516080810190915260608152602081016000815260200160008152602001600081525090565b815260200190600190039081611ba457505060008052600860205260408051608081019091527f5eff886ea0ce6ca488a3d6e336d6c0f75f46d19b42c06ce5ee98e42c96d256c78054929350909182908290611c2b9061220d565b80601f0160208091040260200160405190810160405280929190818152602001828054611c579061220d565b8015611ca45780601f10611c7957610100808354040283529160200191611ca4565b820191906000526020600020905b815481529060010190602001808311611c8757829003601f168201915b5050509183525050600182015460209091019060ff166002811115611ccb57611ccb6121f7565b6002811115611cdc57611cdc6121f7565b81526020016002820154815260200160038201548152505081600081518110611d0757611d076127d7565b60209081029190910181019190915260016000526008905260408051608081019091527fad67d757c34507f157cacfa2e3153e9f260a2244f30428821be7be64587ac55f805482908290611d5a9061220d565b80601f0160208091040260200160405190810160405280929190818152602001828054611d869061220d565b8015611dd35780601f10611da857610100808354040283529160200191611dd3565b820191906000526020600020905b815481529060010190602001808311611db657829003601f168201915b5050509183525050600182015460209091019060ff166002811115611dfa57611dfa6121f7565b6002811115611e0b57611e0b6121f7565b81526020016002820154815260200160038201548152505081600181518110611e3657611e366127d7565b60209081029190910181019190915260026000526008905260408051608081019091527f6add646517a5b0f6793cd5891b7937d28a5b2981a5d88ebc7cd776088fea9041805482908290611e899061220d565b80601f0160208091040260200160405190810160405280929190818152602001828054611eb59061220d565b8015611f025780601f10611ed757610100808354040283529160200191611f02565b820191906000526020600020905b815481529060010190602001808311611ee557829003601f168201915b5050509183525050600182015460209091019060ff166002811115611f2957611f296121f7565b6002811115611f3a57611f3a6121f7565b81526020016002820154815260200160038201548152505081600281518110611f6557611f656127d7565b6020908102919091010152919050565b611f7d6121a9565b600760008381526020019081526020016000206040518060e001604052908160008201548152602001600182018054611fb59061220d565b80601f0160208091040260200160405190810160405280929190818152602001828054611fe19061220d565b801561202e5780601f106120035761010080835404028352916020019161202e565b820191906000526020600020905b81548152906001019060200180831161201157829003601f168201915b505050505081526020016002820180546120479061220d565b80601f01602080910402602001604051908101604052809291908181526020018280546120739061220d565b80156120c05780601f10612095576101008083540402835291602001916120c0565b820191906000526020600020905b8154815290600101906020018083116120a357829003601f168201915b505050505081526020016003820180546120d99061220d565b80601f01602080910402602001604051908101604052809291908181526020018280546121059061220d565b80156121525780601f1061212757610100808354040283529160200191612152565b820191906000526020600020905b81548152906001019060200180831161213557829003601f168201915b505050918352505060048201546020820152600582015460409091019060ff166002811115612183576121836121f7565b6002811115612194576121946121f7565b81526020016006820154815250509050919050565b6040518060e001604052806000815260200160608152602001606081526020016060815260200160008152602001600060028111156121ea576121ea6121f7565b8152602001600081525090565b634e487b7160e01b600052602160045260246000fd5b600181811c9082168061222157607f821691505b60208210810361224157634e487b7160e01b600052602260045260246000fd5b50919050565b634e487b7160e01b600052601160045260246000fd5b8082018082111561227057612270612247565b92915050565b634e487b7160e01b600052604160045260246000fd5b601f8211156122d8576000816000526020600020601f850160051c810160208610156122b55750805b601f850160051c820191505b818110156122d4578281556001016122c1565b5050505b505050565b815167ffffffffffffffff8111156122f7576122f7612276565b61230b81612305845461220d565b8461228c565b602080601f83116001811461234057600084156123285750858301515b600019600386901b1c1916600185901b1785556122d4565b600085815260208120601f198616915b8281101561236f57888601518255948401946001909101908401612350565b508582101561238d5787850151600019600388901b60f8161c191681555b5050505050600190811b01905550565b6000815180845260005b818110156123c3576020818501810151868301820152016123a7565b506000602082860101526020601f19601f83011685010191505092915050565b6003811061240157634e487b7160e01b600052602160045260246000fd5b50565b805182526000602082015160e0602085015261242360e085018261239d565b90506040830151848203604086015261243c828261239d565b91505060608301518482036060860152612456828261239d565b9150506080830151608085015260a0830151612471816123e3565b60a085015260c09283015192909301919091525090565b600060208083016020845280855180835260408601915060408160051b87010192506020870160005b828110156124df57603f198886030184526124cd858351612404565b945092850192908501906001016124b1565b5092979650505050505050565b600082601f8301126124fd57600080fd5b813567ffffffffffffffff8082111561251857612518612276565b604051601f8301601f19908116603f0116810190828211818310171561254057612540612276565b8160405283815286602085880101111561255957600080fd5b836020870160208301376000602085830101528094505050505092915050565b80356003811061258857600080fd5b919050565b60008060008060008060c087890312156125a657600080fd5b863567ffffffffffffffff808211156125be57600080fd5b6125ca8a838b016124ec565b975060208901359150808211156125e057600080fd5b6125ec8a838b016124ec565b9650604089013591508082111561260257600080fd5b5061260f89828a016124ec565b9450506060870135925061262560808801612579565b915060a087013590509295509295509295565b600080600080600080600060e0888a03121561265357600080fd5b87359650602088013567ffffffffffffffff8082111561267257600080fd5b61267e8b838c016124ec565b975060408a013591508082111561269457600080fd5b6126a08b838c016124ec565b965060608a01359150808211156126b657600080fd5b506126c38a828b016124ec565b945050608088013592506126d960a08901612579565b915060c0880135905092959891949750929550565b6000806040838503121561270157600080fd5b50508035926020909101359150565b600060208083018184528085518083526040925060408601915060408160051b87010184880160005b8381101561279657603f1989840301855281516080815181865261275f8287018261239d565b9150508882015161276f816123e3565b858a0152818801518886015260609182015191909401529386019390860190600101612739565b509098975050505050505050565b6000602082840312156127b657600080fd5b5035919050565b6020815260006127d06020830184612404565b9392505050565b634e487b7160e01b600052603260045260246000fd5b6000600182016127ff576127ff612247565b5060010190565b60006020828403121561281857600080fd5b5051919050565b85815260a06020820152600061283860a083018761239d565b828103604084015261284a818761239d565b91505083606083015261285c836123e3565b8260808301529695505050505050565b60006020828403121561287e57600080fd5b815180151581146127d057600080fd5b818103612899575050565b6128a3825461220d565b67ffffffffffffffff8111156128bb576128bb612276565b6128c981612305845461220d565b6000601f8211600181146128fd57600083156128e55750848201545b600019600385901b1c1916600184901b178455612962565b600085815260209020601f19841690600086815260209020845b838110156129375782860154825560019586019590910190602001612917565b50858310156129555781850154600019600388901b60f8161c191681555b50505060018360011b0184555b5050505050565b808202811582820484141761227057612270612247565b818103818111156122705761227061224756fea264697066735822122094433ae692b3a0da9fb095754a02a2b169364690db1653367a5dacf32f1c9b0264736f6c6343000817003368747470733a2f2f696d616765732e756e73706c6173682e636f6d2f70686f746f2d313632323438333736373032382d3366363666333261656639373f713d383026773d32393430266175746f3d666f726d6174266669743d63726f702669786c69623d72622d342e302e3326697869643d4d3377784d6a4133664442384d48787761473930627931775957646c66487838664756756644423866487838664125334425334468747470733a2f2f696d616765732e756e73706c6173682e636f6d2f70686f746f2d313537363130373233323638342d3132373966333930383539663f713d383026773d32383335266175746f3d666f726d6174266669743d63726f702669786c69623d72622d342e302e3326697869643d4d3377784d6a4133664442384d48787761473930627931775957646c66487838664756756644423866487838664125334425334468747470733a2f2f696d616765732e756e73706c6173682e636f6d2f70686f746f2d313535303534373636302d6439343530663835393334393f713d383026773d32303937266175746f3d666f726d6174266669743d63726f702669786c69623d72622d342e302e3326697869643d4d3377784d6a4133664442384d48787761473930627931775957646c66487838664756756644423866487838664125334425334468747470733a2f2f696d616765732e756e73706c6173682e636f6d2f70686f746f2d313630363839303733373330342d3537613163613861356236323f713d383026773d32333034266175746f3d666f726d6174266669743d63726f702669786c69623d72622d342e302e3326697869643d4d3377784d6a4133664442384d48787761473930627931775957646c664878386647567566444238664878386641253344253344",
    "linkReferences": {}
  },
  "methodIdentifiers": {
    "addMenuItem(string,string,string,uint256,uint8,uint256)": "1912b9c4",
    "buyItem(uint256,uint256)": "9979c009",
    "editItem(uint256,string,string,string,uint256,uint8,uint256)": "719ae375",
    "getAllMenuItems()": "e0890e4b",
    "getAllMenuSales()": "f0b61ce5",
    "getBalance()": "12065fe0",
    "getBurgerCount()": "2c300125",
    "getBurgers()": "db69c74a",
    "getDessertCount()": "8148164b",
    "getDesserts()": "10f505ac",
    "getDrinkCount()": "ecfd6dc7",
    "getDrinks()": "dc421938",
    "getMenuItem(uint256)": "f943eecd",
    "getMenuItemsCount()": "18aef5d2",
    "getOwner()": "893d20e8",
    "withdraw()": "3ccfd60b"
  },
  "id": 21
}