{
  "abi": [
    {
      "type": "constructor",
      "inputs": [
        {
          "name": "_stableCoin",
          "type": "address",
          "internalType": "address"
        }
      ],
      "stateMutability": "nonpayable"
    },
    {
      "type": "function",
      "name": "addMenuItem",
      "inputs": [
        {
          "name": "name",
          "type": "string",
          "internalType": "string"
        },
        {
          "name": "description",
          "type": "string",
          "internalType": "string"
        },
        {
          "name": "image",
          "type": "string",
          "internalType": "string"
        },
        {
          "name": "price",
          "type": "uint256",
          "internalType": "uint256"
        },
        {
          "name": "itemCategory",
          "type": "uint8",
          "internalType": "enum Paynapple.Category"
        },
        {
          "name": "stockCount",
          "type": "uint256",
          "internalType": "uint256"
        }
      ],
      "outputs": [],
      "stateMutability": "nonpayable"
    },
    {
      "type": "function",
      "name": "editItem",
      "inputs": [
        {
          "name": "id",
          "type": "uint256",
          "internalType": "uint256"
        },
        {
          "name": "name",
          "type": "string",
          "internalType": "string"
        },
        {
          "name": "description",
          "type": "string",
          "internalType": "string"
        },
        {
          "name": "image",
          "type": "string",
          "internalType": "string"
        },
        {
          "name": "price",
          "type": "uint256",
          "internalType": "uint256"
        },
        {
          "name": "itemCategory",
          "type": "uint8",
          "internalType": "enum Paynapple.Category"
        },
        {
          "name": "stockCount",
          "type": "uint256",
          "internalType": "uint256"
        }
      ],
      "outputs": [],
      "stateMutability": "nonpayable"
    },
    {
      "type": "function",
      "name": "getAllMenuItems",
      "inputs": [],
      "outputs": [
        {
          "name": "",
          "type": "tuple[]",
          "internalType": "struct Paynapple.MenuItem[]",
          "components": [
            {
              "name": "id",
              "type": "uint256",
              "internalType": "uint256"
            },
            {
              "name": "name",
              "type": "string",
              "internalType": "string"
            },
            {
              "name": "image",
              "type": "string",
              "internalType": "string"
            },
            {
              "name": "description",
              "type": "string",
              "internalType": "string"
            },
            {
              "name": "price",
              "type": "uint256",
              "internalType": "uint256"
            },
            {
              "name": "itemCategory",
              "type": "uint8",
              "internalType": "enum Paynapple.Category"
            },
            {
              "name": "stockCount",
              "type": "uint256",
              "internalType": "uint256"
            }
          ]
        }
      ],
      "stateMutability": "view"
    },
    {
      "type": "function",
      "name": "getAllMenuSales",
      "inputs": [],
      "outputs": [
        {
          "name": "",
          "type": "tuple[]",
          "internalType": "struct Paynapple.Sale[]",
          "components": [
            {
              "name": "name",
              "type": "string",
              "internalType": "string"
            },
            {
              "name": "salesType",
              "type": "uint8",
              "internalType": "enum Paynapple.SalesType"
            },
            {
              "name": "amount",
              "type": "uint256",
              "internalType": "uint256"
            },
            {
              "name": "increase",
              "type": "uint256",
              "internalType": "uint256"
            }
          ]
        }
      ],
      "stateMutability": "view"
    },
    {
      "type": "function",
      "name": "getBalance",
      "inputs": [],
      "outputs": [
        {
          "name": "",
          "type": "uint256",
          "internalType": "uint256"
        }
      ],
      "stateMutability": "view"
    },
    {
      "type": "function",
      "name": "getBurgerCount",
      "inputs": [],
      "outputs": [
        {
          "name": "",
          "type": "uint256",
          "internalType": "uint256"
        }
      ],
      "stateMutability": "view"
    },
    {
      "type": "function",
      "name": "getBurgers",
      "inputs": [],
      "outputs": [
        {
          "name": "",
          "type": "tuple[]",
          "internalType": "struct Paynapple.MenuItem[]",
          "components": [
            {
              "name": "id",
              "type": "uint256",
              "internalType": "uint256"
            },
            {
              "name": "name",
              "type": "string",
              "internalType": "string"
            },
            {
              "name": "image",
              "type": "string",
              "internalType": "string"
            },
            {
              "name": "description",
              "type": "string",
              "internalType": "string"
            },
            {
              "name": "price",
              "type": "uint256",
              "internalType": "uint256"
            },
            {
              "name": "itemCategory",
              "type": "uint8",
              "internalType": "enum Paynapple.Category"
            },
            {
              "name": "stockCount",
              "type": "uint256",
              "internalType": "uint256"
            }
          ]
        }
      ],
      "stateMutability": "view"
    },
    {
      "type": "function",
      "name": "getDessertCount",
      "inputs": [],
      "outputs": [
        {
          "name": "",
          "type": "uint256",
          "internalType": "uint256"
        }
      ],
      "stateMutability": "view"
    },
    {
      "type": "function",
      "name": "getDesserts",
      "inputs": [],
      "outputs": [
        {
          "name": "",
          "type": "tuple[]",
          "internalType": "struct Paynapple.MenuItem[]",
          "components": [
            {
              "name": "id",
              "type": "uint256",
              "internalType": "uint256"
            },
            {
              "name": "name",
              "type": "string",
              "internalType": "string"
            },
            {
              "name": "image",
              "type": "string",
              "internalType": "string"
            },
            {
              "name": "description",
              "type": "string",
              "internalType": "string"
            },
            {
              "name": "price",
              "type": "uint256",
              "internalType": "uint256"
            },
            {
              "name": "itemCategory",
              "type": "uint8",
              "internalType": "enum Paynapple.Category"
            },
            {
              "name": "stockCount",
              "type": "uint256",
              "internalType": "uint256"
            }
          ]
        }
      ],
      "stateMutability": "view"
    },
    {
      "type": "function",
      "name": "getDrinkCount",
      "inputs": [],
      "outputs": [
        {
          "name": "",
          "type": "uint256",
          "internalType": "uint256"
        }
      ],
      "stateMutability": "view"
    },
    {
      "type": "function",
      "name": "getDrinks",
      "inputs": [],
      "outputs": [
        {
          "name": "",
          "type": "tuple[]",
          "internalType": "struct Paynapple.MenuItem[]",
          "components": [
            {
              "name": "id",
              "type": "uint256",
              "internalType": "uint256"
            },
            {
              "name": "name",
              "type": "string",
              "internalType": "string"
            },
            {
              "name": "image",
              "type": "string",
              "internalType": "string"
            },
            {
              "name": "description",
              "type": "string",
              "internalType": "string"
            },
            {
              "name": "price",
              "type": "uint256",
              "internalType": "uint256"
            },
            {
              "name": "itemCategory",
              "type": "uint8",
              "internalType": "enum Paynapple.Category"
            },
            {
              "name": "stockCount",
              "type": "uint256",
              "internalType": "uint256"
            }
          ]
        }
      ],
      "stateMutability": "view"
    },
    {
      "type": "function",
      "name": "getMenuItem",
      "inputs": [
        {
          "name": "id",
          "type": "uint256",
          "internalType": "uint256"
        }
      ],
      "outputs": [
        {
          "name": "",
          "type": "tuple",
          "internalType": "struct Paynapple.MenuItem",
          "components": [
            {
              "name": "id",
              "type": "uint256",
              "internalType": "uint256"
            },
            {
              "name": "name",
              "type": "string",
              "internalType": "string"
            },
            {
              "name": "image",
              "type": "string",
              "internalType": "string"
            },
            {
              "name": "description",
              "type": "string",
              "internalType": "string"
            },
            {
              "name": "price",
              "type": "uint256",
              "internalType": "uint256"
            },
            {
              "name": "itemCategory",
              "type": "uint8",
              "internalType": "enum Paynapple.Category"
            },
            {
              "name": "stockCount",
              "type": "uint256",
              "internalType": "uint256"
            }
          ]
        }
      ],
      "stateMutability": "view"
    },
    {
      "type": "function",
      "name": "getMenuItemsCount",
      "inputs": [],
      "outputs": [
        {
          "name": "",
          "type": "uint256",
          "internalType": "uint256"
        }
      ],
      "stateMutability": "view"
    },
    {
      "type": "function",
      "name": "getOwner",
      "inputs": [],
      "outputs": [
        {
          "name": "",
          "type": "address",
          "internalType": "address"
        }
      ],
      "stateMutability": "view"
    },
    {
      "type": "event",
      "name": "MenuItemAdded",
      "inputs": [
        {
          "name": "id",
          "type": "uint256",
          "indexed": false,
          "internalType": "uint256"
        },
        {
          "name": "name",
          "type": "string",
          "indexed": false,
          "internalType": "string"
        },
        {
          "name": "description",
          "type": "string",
          "indexed": false,
          "internalType": "string"
        },
        {
          "name": "price",
          "type": "uint256",
          "indexed": false,
          "internalType": "uint256"
        },
        {
          "name": "itemCategory",
          "type": "uint8",
          "indexed": false,
          "internalType": "enum Paynapple.Category"
        }
      ],
      "anonymous": false
    },
    {
      "type": "error",
      "name": "Paynapple__NotAuthorized",
      "inputs": []
    }
  ],
  "bytecode": {
    "object": "0x60806040523480156200001157600080fd5b5060405162002d6638038062002d668339810160408190526200003491620007af565b60058054336001600160a01b031991821617909155600080549091166001600160a01b038316179055620000676200006e565b5062000a41565b6040805160c081018252600460808201908152634d656e7560e01b60a0830152815260006020808301829052928201819052606082018190528052600890915280517f5eff886ea0ce6ca488a3d6e336d6c0f75f46d19b42c06ce5ee98e42c96d256c7908190620000e090826200089e565b50602082015160018083018054909160ff19909116908360028111156200010b576200010b620007e1565b02179055506040828101516002830155606090920151600390910155805160c0810190915260086080820190815267496e2d53746f726560c01b60a0830152815260208101600181526000602082018190526040909101819052600890600160028111156200017e576200017e620007e1565b81526020810191909152604001600020815181906200019e90826200089e565b50602082015160018083018054909160ff1990911690836002811115620001c957620001c9620007e1565b021790555060408201518160020155606082015181600301559050506040518060800160405280604051806040016040528060068152602001654f6e6c696e6560d01b8152508152602001600280811115620002295762000229620007e1565b8152600060208083018290526040909201819052600290526008905280517f6add646517a5b0f6793cd5891b7937d28a5b2981a5d88ebc7cd776088fea90419081906200027790826200089e565b50602082015160018083018054909160ff1990911690836002811115620002a257620002a2620007e1565b02179055506040820151816002015560608201518160030155905050620003436040518060400160405280600c81526020016b21b432b2b9b2b13ab933b2b960a11b8152506040518060400160405280601881526020017f412064656c6963696f75732063686565736562757267657200000000000000008152506040518060e0016040528060a3815260200162002c1d60a39139600a60006064620004ae565b620003ca6040518060400160405280600e81526020016d43686f636f6c6174652043616b6560901b8152506040518060400160405280601a81526020017f412064656c6963696f75732063686f636f6c6174652063616b650000000000008152506040518060e0016040528060a6815260200162002cc060a69139600560016064620004ae565b6200043a60405180604001604052806004815260200163436f6b6560e01b81525060405180604001604052806011815260200170412072656672657368696e6720636f6b6560781b8152506040518060e0016040528060a6815260200162002ad160a691396002806064620004ae565b620004ac60405180604001604052806005815260200164467269657360d81b81525060405180604001604052806011815260200170412064656c6963696f757320667269657360781b8152506040518060e0016040528060a6815260200162002b7760a69139600360026064620004ae565b565b6005546001600160a01b03163314620004da576040516320782e4f60e11b815260040160405180910390fd5b60006040518060e0016040528060015481526020018881526020018681526020018781526020018581526020018460028111156200051c576200051c620007e1565b8152602090810184905260068054600181018255600091909152825160079091027ff652222313e28459528d920b65115c16c04f3efc82aaedc97be59f3f377c0d3f810191825591830151929350839290917ff652222313e28459528d920b65115c16c04f3efc82aaedc97be59f3f377c0d4001906200059d90826200089e565b5060408201516002820190620005b490826200089e565b5060608201516003820190620005cb90826200089e565b506080820151600482015560a082015160058201805460ff19166001836002811115620005fc57620005fc620007e1565b021790555060c09190910151600690910155600180546000908152600760209081526040909120835181559083015183928201906200063c90826200089e565b50604082015160028201906200065390826200089e565b50606082015160038201906200066a90826200089e565b506080820151600482015560a082015160058201805460ff191660018360028111156200069b576200069b620007e1565b021790555060c0919091015160069091015560018054906000620006bf836200096a565b9091555060009050836002811115620006dc57620006dc620007e1565b03620006ff5760028054906000620006f4836200096a565b919050555062000763565b6001836002811115620007165762000716620007e1565b036200072e5760038054906000620006f4836200096a565b6002836002811115620007455762000745620007e1565b036200076357600480549060006200075d836200096a565b91905055505b7f9eca3cb3de8db8551c03108124d00400edcc3414dc83884fbd54d02bfbf4e169600154888887876040516200079e959493929190620009da565b60405180910390a150505050505050565b600060208284031215620007c257600080fd5b81516001600160a01b0381168114620007da57600080fd5b9392505050565b634e487b7160e01b600052602160045260246000fd5b634e487b7160e01b600052604160045260246000fd5b600181811c908216806200082257607f821691505b6020821081036200084357634e487b7160e01b600052602260045260246000fd5b50919050565b601f82111562000899576000816000526020600020601f850160051c81016020861015620008745750805b601f850160051c820191505b81811015620008955782815560010162000880565b5050505b505050565b81516001600160401b03811115620008ba57620008ba620007f7565b620008d281620008cb84546200080d565b8462000849565b602080601f8311600181146200090a5760008415620008f15750858301515b600019600386901b1c1916600185901b17855562000895565b600085815260208120601f198616915b828110156200093b578886015182559484019460019091019084016200091a565b50858210156200095a5787850151600019600388901b60f8161c191681555b5050505050600190811b01905550565b6000600182016200098b57634e487b7160e01b600052601160045260246000fd5b5060010190565b6000815180845260005b81811015620009ba576020818501810151868301820152016200099c565b506000602082860101526020601f19601f83011685010191505092915050565b85815260a060208201526000620009f560a083018762000992565b828103604084015262000a09818762000992565b9150508360608301526003831062000a3157634e487b7160e01b600052602160045260246000fd5b8260808301529695505050505050565b6120808062000a516000396000f3fe608060405234801561001057600080fd5b50600436106100ea5760003560e01c8063893d20e81161008c578063e0890e4b11610066578063e0890e4b1461018e578063ecfd6dc714610196578063f0b61ce51461019e578063f943eecd146101b357600080fd5b8063893d20e814610163578063db69c74a1461017e578063dc4219381461018657600080fd5b80631912b9c4116100c85780631912b9c41461012b5780632c30012514610140578063719ae375146101485780638148164b1461015b57600080fd5b806310f505ac146100ef57806312065fe01461010d57806318aef5d214610123575b600080fd5b6100f76101d3565b6040516101049190611a3e565b60405180910390f35b6101156104ed565b604051908152602001610104565b600154610115565b61013e610139366004611b59565b61055f565b005b600254610115565b61013e610156366004611c04565b610833565b600354610115565b6005546040516001600160a01b039091168152602001610104565b6100f7610a44565b6100f7610d56565b6100f7611068565b600454610115565b6101a66112ce565b6040516101049190611cba565b6101c66101c1366004611d4e565b6116bb565b6040516101049190611d67565b6060600060015467ffffffffffffffff8111156101f2576101f2611aa2565b60405190808252806020026020018201604052801561022b57816020015b6102186118ef565b8152602001906001900390816102105790505b5090506000805b6001548110156104e55760016006828154811061025157610251611d81565b600091825260209091206005600790920201015460ff16600281111561027957610279611983565b036104dd576006818154811061029157610291611d81565b90600052602060002090600702016040518060e0016040529081600082015481526020016001820180546102c490611d97565b80601f01602080910402602001604051908101604052809291908181526020018280546102f090611d97565b801561033d5780601f106103125761010080835404028352916020019161033d565b820191906000526020600020905b81548152906001019060200180831161032057829003601f168201915b5050505050815260200160028201805461035690611d97565b80601f016020809104026020016040519081016040528092919081815260200182805461038290611d97565b80156103cf5780601f106103a4576101008083540402835291602001916103cf565b820191906000526020600020905b8154815290600101906020018083116103b257829003601f168201915b505050505081526020016003820180546103e890611d97565b80601f016020809104026020016040519081016040528092919081815260200182805461041490611d97565b80156104615780601f1061043657610100808354040283529160200191610461565b820191906000526020600020905b81548152906001019060200180831161044457829003601f168201915b505050918352505060048201546020820152600582015460409091019060ff16600281111561049257610492611983565b60028111156104a3576104a3611983565b81526020016006820154815250508383815181106104c3576104c3611d81565b602002602001018190525081806104d990611dd1565b9250505b600101610232565b509092915050565b600080546040516370a0823160e01b81523060048201526001600160a01b03909116906370a0823190602401602060405180830381865afa158015610536573d6000803e3d6000fd5b505050506040513d601f19601f8201168201806040525081019061055a9190611df8565b905090565b6005546001600160a01b0316331461058a576040516320782e4f60e11b815260040160405180910390fd5b60006040518060e0016040528060015481526020018881526020018681526020018781526020018581526020018460028111156105c9576105c9611983565b8152602090810184905260068054600181018255600091909152825160079091027ff652222313e28459528d920b65115c16c04f3efc82aaedc97be59f3f377c0d3f810191825591830151929350839290917ff652222313e28459528d920b65115c16c04f3efc82aaedc97be59f3f377c0d4001906106489082611e62565b506040820151600282019061065d9082611e62565b50606082015160038201906106729082611e62565b506080820151600482015560a082015160058201805460ff191660018360028111156106a0576106a0611983565b021790555060c09190910151600690910155600180546000908152600760209081526040909120835181559083015183928201906106de9082611e62565b50604082015160028201906106f39082611e62565b50606082015160038201906107089082611e62565b506080820151600482015560a082015160058201805460ff1916600183600281111561073657610736611983565b021790555060c091909101516006909101556001805490600061075883611dd1565b909155506000905083600281111561077257610772611983565b03610791576002805490600061078783611dd1565b91905055506107e9565b60018360028111156107a5576107a5611983565b036107ba576003805490600061078783611dd1565b60028360028111156107ce576107ce611983565b036107e957600480549060006107e383611dd1565b91905055505b7f9eca3cb3de8db8551c03108124d00400edcc3414dc83884fbd54d02bfbf4e16960015488888787604051610822959493929190611f22565b60405180910390a150505050505050565b6005546001600160a01b0316331461085e576040516320782e4f60e11b815260040160405180910390fd5b856006888154811061087257610872611d81565b9060005260206000209060070201600101908161088f9190611e62565b5084600688815481106108a4576108a4611d81565b906000526020600020906007020160030190816108c19190611e62565b5083600688815481106108d6576108d6611d81565b906000526020600020906007020160020190816108f39190611e62565b50826006888154811061090857610908611d81565b906000526020600020906007020160040181905550816006888154811061093157610931611d81565b60009182526020909120600560079092020101805460ff1916600183600281111561095e5761095e611983565b0217905550806006888154811061097757610977611d81565b9060005260206000209060070201600601819055506006878154811061099f5761099f611d81565b600091825260208083208a84526007918290526040909320910290910180548255906001808201906109d390840182611f6f565b506002818101906109e690840182611f6f565b506003818101906109f990840182611f6f565b5060048281015490820155600580830154908201805460ff9092169160ff19166001836002811115610a2d57610a2d611983565b021790555060069182015491015550505050505050565b6060600060015467ffffffffffffffff811115610a6357610a63611aa2565b604051908082528060200260200182016040528015610a9c57816020015b610a896118ef565b815260200190600190039081610a815790505b5090506000805b6001548110156104e557600060068281548110610ac257610ac2611d81565b600091825260209091206005600790920201015460ff166002811115610aea57610aea611983565b03610d4e5760068181548110610b0257610b02611d81565b90600052602060002090600702016040518060e001604052908160008201548152602001600182018054610b3590611d97565b80601f0160208091040260200160405190810160405280929190818152602001828054610b6190611d97565b8015610bae5780601f10610b8357610100808354040283529160200191610bae565b820191906000526020600020905b815481529060010190602001808311610b9157829003601f168201915b50505050508152602001600282018054610bc790611d97565b80601f0160208091040260200160405190810160405280929190818152602001828054610bf390611d97565b8015610c405780601f10610c1557610100808354040283529160200191610c40565b820191906000526020600020905b815481529060010190602001808311610c2357829003601f168201915b50505050508152602001600382018054610c5990611d97565b80601f0160208091040260200160405190810160405280929190818152602001828054610c8590611d97565b8015610cd25780601f10610ca757610100808354040283529160200191610cd2565b820191906000526020600020905b815481529060010190602001808311610cb557829003601f168201915b505050918352505060048201546020820152600582015460409091019060ff166002811115610d0357610d03611983565b6002811115610d1457610d14611983565b8152602001600682015481525050838381518110610d3457610d34611d81565b60200260200101819052508180610d4a90611dd1565b9250505b600101610aa3565b6060600060015467ffffffffffffffff811115610d7557610d75611aa2565b604051908082528060200260200182016040528015610dae57816020015b610d9b6118ef565b815260200190600190039081610d935790505b5090506000805b6001548110156104e557600260068281548110610dd457610dd4611d81565b600091825260209091206005600790920201015460ff166002811115610dfc57610dfc611983565b036110605760068181548110610e1457610e14611d81565b90600052602060002090600702016040518060e001604052908160008201548152602001600182018054610e4790611d97565b80601f0160208091040260200160405190810160405280929190818152602001828054610e7390611d97565b8015610ec05780601f10610e9557610100808354040283529160200191610ec0565b820191906000526020600020905b815481529060010190602001808311610ea357829003601f168201915b50505050508152602001600282018054610ed990611d97565b80601f0160208091040260200160405190810160405280929190818152602001828054610f0590611d97565b8015610f525780601f10610f2757610100808354040283529160200191610f52565b820191906000526020600020905b815481529060010190602001808311610f3557829003601f168201915b50505050508152602001600382018054610f6b90611d97565b80601f0160208091040260200160405190810160405280929190818152602001828054610f9790611d97565b8015610fe45780601f10610fb957610100808354040283529160200191610fe4565b820191906000526020600020905b815481529060010190602001808311610fc757829003601f168201915b505050918352505060048201546020820152600582015460409091019060ff16600281111561101557611015611983565b600281111561102657611026611983565b815260200160068201548152505083838151811061104657611046611d81565b6020026020010181905250818061105c90611dd1565b9250505b600101610db5565b60606006805480602002602001604051908101604052809291908181526020016000905b828210156112c557838290600052602060002090600702016040518060e0016040529081600082015481526020016001820180546110c990611d97565b80601f01602080910402602001604051908101604052809291908181526020018280546110f590611d97565b80156111425780601f1061111757610100808354040283529160200191611142565b820191906000526020600020905b81548152906001019060200180831161112557829003601f168201915b5050505050815260200160028201805461115b90611d97565b80601f016020809104026020016040519081016040528092919081815260200182805461118790611d97565b80156111d45780601f106111a9576101008083540402835291602001916111d4565b820191906000526020600020905b8154815290600101906020018083116111b757829003601f168201915b505050505081526020016003820180546111ed90611d97565b80601f016020809104026020016040519081016040528092919081815260200182805461121990611d97565b80156112665780601f1061123b57610100808354040283529160200191611266565b820191906000526020600020905b81548152906001019060200180831161124957829003601f168201915b505050918352505060048201546020820152600582015460409091019060ff16600281111561129757611297611983565b60028111156112a8576112a8611983565b81526020016006820154815250508152602001906001019061108c565b50505050905090565b6040805160038082526080820190925260609160009190816020015b611316604080516080810190915260608152602081016000815260200160008152602001600081525090565b8152602001906001900390816112ea57505060008052600860205260408051608081019091527f5eff886ea0ce6ca488a3d6e336d6c0f75f46d19b42c06ce5ee98e42c96d256c7805492935090918290829061137190611d97565b80601f016020809104026020016040519081016040528092919081815260200182805461139d90611d97565b80156113ea5780601f106113bf576101008083540402835291602001916113ea565b820191906000526020600020905b8154815290600101906020018083116113cd57829003601f168201915b5050509183525050600182015460209091019060ff16600281111561141157611411611983565b600281111561142257611422611983565b8152602001600282015481526020016003820154815250508160008151811061144d5761144d611d81565b60209081029190910181019190915260016000526008905260408051608081019091527fad67d757c34507f157cacfa2e3153e9f260a2244f30428821be7be64587ac55f8054829082906114a090611d97565b80601f01602080910402602001604051908101604052809291908181526020018280546114cc90611d97565b80156115195780601f106114ee57610100808354040283529160200191611519565b820191906000526020600020905b8154815290600101906020018083116114fc57829003601f168201915b5050509183525050600182015460209091019060ff16600281111561154057611540611983565b600281111561155157611551611983565b8152602001600282015481526020016003820154815250508160018151811061157c5761157c611d81565b60209081029190910181019190915260026000526008905260408051608081019091527f6add646517a5b0f6793cd5891b7937d28a5b2981a5d88ebc7cd776088fea90418054829082906115cf90611d97565b80601f01602080910402602001604051908101604052809291908181526020018280546115fb90611d97565b80156116485780601f1061161d57610100808354040283529160200191611648565b820191906000526020600020905b81548152906001019060200180831161162b57829003601f168201915b5050509183525050600182015460209091019060ff16600281111561166f5761166f611983565b600281111561168057611680611983565b815260200160028201548152602001600382015481525050816002815181106116ab576116ab611d81565b6020908102919091010152919050565b6116c36118ef565b600760008381526020019081526020016000206040518060e0016040529081600082015481526020016001820180546116fb90611d97565b80601f016020809104026020016040519081016040528092919081815260200182805461172790611d97565b80156117745780601f1061174957610100808354040283529160200191611774565b820191906000526020600020905b81548152906001019060200180831161175757829003601f168201915b5050505050815260200160028201805461178d90611d97565b80601f01602080910402602001604051908101604052809291908181526020018280546117b990611d97565b80156118065780601f106117db57610100808354040283529160200191611806565b820191906000526020600020905b8154815290600101906020018083116117e957829003601f168201915b5050505050815260200160038201805461181f90611d97565b80601f016020809104026020016040519081016040528092919081815260200182805461184b90611d97565b80156118985780601f1061186d57610100808354040283529160200191611898565b820191906000526020600020905b81548152906001019060200180831161187b57829003601f168201915b505050918352505060048201546020820152600582015460409091019060ff1660028111156118c9576118c9611983565b60028111156118da576118da611983565b81526020016006820154815250509050919050565b6040518060e0016040528060008152602001606081526020016060815260200160608152602001600081526020016000600281111561193057611930611983565b8152602001600081525090565b6000815180845260005b8181101561196357602081850181015186830182015201611947565b506000602082860101526020601f19601f83011685010191505092915050565b634e487b7160e01b600052602160045260246000fd5b600381106119b757634e487b7160e01b600052602160045260246000fd5b50565b805182526000602082015160e060208501526119d960e085018261193d565b9050604083015184820360408601526119f2828261193d565b91505060608301518482036060860152611a0c828261193d565b9150506080830151608085015260a0830151611a2781611999565b60a085015260c09283015192909301919091525090565b600060208083016020845280855180835260408601915060408160051b87010192506020870160005b82811015611a9557603f19888603018452611a838583516119ba565b94509285019290850190600101611a67565b5092979650505050505050565b634e487b7160e01b600052604160045260246000fd5b600082601f830112611ac957600080fd5b813567ffffffffffffffff80821115611ae457611ae4611aa2565b604051601f8301601f19908116603f01168101908282118183101715611b0c57611b0c611aa2565b81604052838152866020858801011115611b2557600080fd5b836020870160208301376000602085830101528094505050505092915050565b803560038110611b5457600080fd5b919050565b60008060008060008060c08789031215611b7257600080fd5b863567ffffffffffffffff80821115611b8a57600080fd5b611b968a838b01611ab8565b97506020890135915080821115611bac57600080fd5b611bb88a838b01611ab8565b96506040890135915080821115611bce57600080fd5b50611bdb89828a01611ab8565b94505060608701359250611bf160808801611b45565b915060a087013590509295509295509295565b600080600080600080600060e0888a031215611c1f57600080fd5b87359650602088013567ffffffffffffffff80821115611c3e57600080fd5b611c4a8b838c01611ab8565b975060408a0135915080821115611c6057600080fd5b611c6c8b838c01611ab8565b965060608a0135915080821115611c8257600080fd5b50611c8f8a828b01611ab8565b94505060808801359250611ca560a08901611b45565b915060c0880135905092959891949750929550565b600060208083018184528085518083526040925060408601915060408160051b87010184880160005b83811015611d4057603f19898403018552815160808151818652611d098287018261193d565b91505088820151611d1981611999565b858a0152818801518886015260609182015191909401529386019390860190600101611ce3565b509098975050505050505050565b600060208284031215611d6057600080fd5b5035919050565b602081526000611d7a60208301846119ba565b9392505050565b634e487b7160e01b600052603260045260246000fd5b600181811c90821680611dab57607f821691505b602082108103611dcb57634e487b7160e01b600052602260045260246000fd5b50919050565b600060018201611df157634e487b7160e01b600052601160045260246000fd5b5060010190565b600060208284031215611e0a57600080fd5b5051919050565b601f821115611e5d576000816000526020600020601f850160051c81016020861015611e3a5750805b601f850160051c820191505b81811015611e5957828155600101611e46565b5050505b505050565b815167ffffffffffffffff811115611e7c57611e7c611aa2565b611e9081611e8a8454611d97565b84611e11565b602080601f831160018114611ec55760008415611ead5750858301515b600019600386901b1c1916600185901b178555611e59565b600085815260208120601f198616915b82811015611ef457888601518255948401946001909101908401611ed5565b5085821015611f125787850151600019600388901b60f8161c191681555b5050505050600190811b01905550565b85815260a060208201526000611f3b60a083018761193d565b8281036040840152611f4d818761193d565b915050836060830152611f5f83611999565b8260808301529695505050505050565b818103611f7a575050565b611f848254611d97565b67ffffffffffffffff811115611f9c57611f9c611aa2565b611faa81611e8a8454611d97565b6000601f821160018114611fde5760008315611fc65750848201545b600019600385901b1c1916600184901b178455612043565b600085815260209020601f19841690600086815260209020845b838110156120185782860154825560019586019590910190602001611ff8565b50858310156120365781850154600019600388901b60f8161c191681555b50505060018360011b0184555b505050505056fea264697066735822122091f9777d03142760275555505d83bfc0ae06a28bbcd1e4b6d03273b0e39b5ff964736f6c6343000817003368747470733a2f2f696d616765732e756e73706c6173682e636f6d2f70686f746f2d313632323438333736373032382d3366363666333261656639373f713d383026773d32393430266175746f3d666f726d6174266669743d63726f702669786c69623d72622d342e302e3326697869643d4d3377784d6a4133664442384d48787761473930627931775957646c66487838664756756644423866487838664125334425334468747470733a2f2f696d616765732e756e73706c6173682e636f6d2f70686f746f2d313537363130373233323638342d3132373966333930383539663f713d383026773d32383335266175746f3d666f726d6174266669743d63726f702669786c69623d72622d342e302e3326697869643d4d3377784d6a4133664442384d48787761473930627931775957646c66487838664756756644423866487838664125334425334468747470733a2f2f696d616765732e756e73706c6173682e636f6d2f70686f746f2d313535303534373636302d6439343530663835393334393f713d383026773d32303937266175746f3d666f726d6174266669743d63726f702669786c69623d72622d342e302e3326697869643d4d3377784d6a4133664442384d48787761473930627931775957646c66487838664756756644423866487838664125334425334468747470733a2f2f696d616765732e756e73706c6173682e636f6d2f70686f746f2d313630363839303733373330342d3537613163613861356236323f713d383026773d32333034266175746f3d666f726d6174266669743d63726f702669786c69623d72622d342e302e3326697869643d4d3377784d6a4133664442384d48787761473930627931775957646c664878386647567566444238664878386641253344253344",
    "linkReferences": {}
  },
  "methodIdentifiers": {
    "addMenuItem(string,string,string,uint256,uint8,uint256)": "1912b9c4",
    "editItem(uint256,string,string,string,uint256,uint8,uint256)": "719ae375",
    "getAllMenuItems()": "e0890e4b",
    "getAllMenuSales()": "f0b61ce5",
    "getBalance()": "12065fe0",
    "getBurgerCount()": "2c300125",
    "getBurgers()": "db69c74a",
    "getDessertCount()": "8148164b",
    "getDesserts()": "10f505ac",
    "getDrinkCount()": "ecfd6dc7",
    "getDrinks()": "dc421938",
    "getMenuItem(uint256)": "f943eecd",
    "getMenuItemsCount()": "18aef5d2",
    "getOwner()": "893d20e8"
  },
  "id": 26
}